{
  "abi": [
    {
      "inputs": [
        {
          "internalType": "address",
          "name": "_adminAddress",
          "type": "address"
        }
      ],
      "stateMutability": "nonpayable",
      "type": "constructor"
    },
    {
      "inputs": [],
      "name": "AccessControlBadConfirmation",
      "type": "error"
    },
    {
      "inputs": [
        {
          "internalType": "address",
          "name": "account",
          "type": "address"
        },
        {
          "internalType": "bytes32",
          "name": "neededRole",
          "type": "bytes32"
        }
      ],
      "name": "AccessControlUnauthorizedAccount",
      "type": "error"
    },
    {
      "inputs": [],
      "name": "Data__CantRevokeYourself",
      "type": "error"
    },
    {
      "inputs": [],
      "name": "Data__IDAlreadyExist",
      "type": "error"
    },
    {
      "inputs": [],
      "name": "Data__IDDoesNotExist",
      "type": "error"
    },
    {
      "inputs": [
        {
          "internalType": "address",
          "name": "",
          "type": "address"
        }
      ],
      "name": "Data__OnlyAdmin",
      "type": "error"
    },
    {
      "inputs": [],
      "name": "Data__OnlyDataProvider",
      "type": "error"
    },
    {
      "anonymous": false,
      "inputs": [
        {
          "indexed": false,
          "internalType": "address",
          "name": "adminAddress",
          "type": "address"
        },
        {
          "indexed": false,
          "internalType": "uint256",
          "name": "date",
          "type": "uint256"
        }
      ],
      "name": "Data__newAdmin",
      "type": "event"
    },
    {
      "anonymous": false,
      "inputs": [
        {
          "indexed": false,
          "internalType": "address",
          "name": "dataProviderAddress",
          "type": "address"
        },
        {
          "indexed": false,
          "internalType": "uint256",
          "name": "date",
          "type": "uint256"
        }
      ],
      "name": "Data__newDataProvider",
      "type": "event"
    },
    {
      "anonymous": false,
      "inputs": [
        {
          "indexed": false,
          "internalType": "uint256",
          "name": "numberID",
          "type": "uint256"
        },
        {
          "indexed": false,
          "internalType": "address",
          "name": "userAddress",
          "type": "address"
        }
      ],
      "name": "Data__newID",
      "type": "event"
    },
    {
      "anonymous": false,
      "inputs": [
        {
          "indexed": false,
          "internalType": "address",
          "name": "adminAddress",
          "type": "address"
        },
        {
          "indexed": false,
          "internalType": "uint256",
          "name": "date",
          "type": "uint256"
        }
      ],
      "name": "Data__removeAdmin",
      "type": "event"
    },
    {
      "anonymous": false,
      "inputs": [
        {
          "indexed": false,
          "internalType": "address",
          "name": "dataProviderAddress",
          "type": "address"
        },
        {
          "indexed": false,
          "internalType": "uint256",
          "name": "date",
          "type": "uint256"
        }
      ],
      "name": "Data__removeDataProvider",
      "type": "event"
    },
    {
      "anonymous": false,
      "inputs": [
        {
          "indexed": false,
          "internalType": "uint256",
          "name": "numberID",
          "type": "uint256"
        },
        {
          "indexed": false,
          "internalType": "address",
          "name": "userAddress",
          "type": "address"
        }
      ],
      "name": "Data__updateID",
      "type": "event"
    },
    {
      "anonymous": false,
      "inputs": [
        {
          "indexed": true,
          "internalType": "bytes32",
          "name": "role",
          "type": "bytes32"
        },
        {
          "indexed": true,
          "internalType": "bytes32",
          "name": "previousAdminRole",
          "type": "bytes32"
        },
        {
          "indexed": true,
          "internalType": "bytes32",
          "name": "newAdminRole",
          "type": "bytes32"
        }
      ],
      "name": "RoleAdminChanged",
      "type": "event"
    },
    {
      "anonymous": false,
      "inputs": [
        {
          "indexed": true,
          "internalType": "bytes32",
          "name": "role",
          "type": "bytes32"
        },
        {
          "indexed": true,
          "internalType": "address",
          "name": "account",
          "type": "address"
        },
        {
          "indexed": true,
          "internalType": "address",
          "name": "sender",
          "type": "address"
        }
      ],
      "name": "RoleGranted",
      "type": "event"
    },
    {
      "anonymous": false,
      "inputs": [
        {
          "indexed": true,
          "internalType": "bytes32",
          "name": "role",
          "type": "bytes32"
        },
        {
          "indexed": true,
          "internalType": "address",
          "name": "account",
          "type": "address"
        },
        {
          "indexed": true,
          "internalType": "address",
          "name": "sender",
          "type": "address"
        }
      ],
      "name": "RoleRevoked",
      "type": "event"
    },
    {
      "inputs": [],
      "name": "ADMIN_ROLE",
      "outputs": [
        {
          "internalType": "bytes32",
          "name": "",
          "type": "bytes32"
        }
      ],
      "stateMutability": "view",
      "type": "function"
    },
    {
      "inputs": [],
      "name": "DATA_PROVIDER_ROLE",
      "outputs": [
        {
          "internalType": "bytes32",
          "name": "",
          "type": "bytes32"
        }
      ],
      "stateMutability": "view",
      "type": "function"
    },
    {
      "inputs": [],
      "name": "DEFAULT_ADMIN_ROLE",
      "outputs": [
        {
          "internalType": "bytes32",
          "name": "",
          "type": "bytes32"
        }
      ],
      "stateMutability": "view",
      "type": "function"
    },
    {
      "inputs": [
        {
          "internalType": "address",
          "name": "_userAddress",
          "type": "address"
        }
      ],
      "name": "addressHasIdAssigned",
      "outputs": [
        {
          "internalType": "bool",
          "name": "",
          "type": "bool"
        }
      ],
      "stateMutability": "view",
      "type": "function"
    },
    {
      "inputs": [
        {
          "internalType": "address",
          "name": "userAddress",
          "type": "address"
        },
        {
          "internalType": "string",
          "name": "firstName",
          "type": "string"
        },
        {
          "internalType": "string",
          "name": "lastName",
          "type": "string"
        },
        {
          "internalType": "uint256",
          "name": "birthDate",
          "type": "uint256"
        },
        {
          "internalType": "string",
          "name": "birthPlace",
          "type": "string"
        }
      ],
      "name": "generateID",
      "outputs": [
        {
          "internalType": "uint256",
          "name": "",
          "type": "uint256"
        }
      ],
      "stateMutability": "nonpayable",
      "type": "function"
    },
    {
      "inputs": [
        {
          "internalType": "address",
          "name": "_userAddress",
          "type": "address"
        }
      ],
      "name": "getIDMetadataByAddress",
      "outputs": [
        {
          "components": [
            {
              "internalType": "string",
              "name": "firstName",
              "type": "string"
            },
            {
              "internalType": "string",
              "name": "lastName",
              "type": "string"
            },
            {
              "internalType": "uint256",
              "name": "birthDate",
              "type": "uint256"
            },
            {
              "internalType": "string",
              "name": "birthPlace",
              "type": "string"
            }
          ],
          "internalType": "struct Data.idMetadata",
          "name": "",
          "type": "tuple"
        }
      ],
      "stateMutability": "view",
      "type": "function"
    },
    {
      "inputs": [
        {
          "internalType": "uint256",
          "name": "_numberID",
          "type": "uint256"
        }
      ],
      "name": "getIDMetadataByNumberID",
      "outputs": [
        {
          "components": [
            {
              "internalType": "string",
              "name": "firstName",
              "type": "string"
            },
            {
              "internalType": "string",
              "name": "lastName",
              "type": "string"
            },
            {
              "internalType": "uint256",
              "name": "birthDate",
              "type": "uint256"
            },
            {
              "internalType": "string",
              "name": "birthPlace",
              "type": "string"
            }
          ],
          "internalType": "struct Data.idMetadata",
          "name": "",
          "type": "tuple"
        }
      ],
      "stateMutability": "view",
      "type": "function"
    },
    {
      "inputs": [
        {
          "internalType": "address",
          "name": "_userAddress",
          "type": "address"
        }
      ],
      "name": "getIDNumberByAddress",
      "outputs": [
        {
          "internalType": "uint256",
          "name": "",
          "type": "uint256"
        }
      ],
      "stateMutability": "view",
      "type": "function"
    },
    {
      "inputs": [
        {
          "internalType": "bytes32",
          "name": "role",
          "type": "bytes32"
        }
      ],
      "name": "getRoleAdmin",
      "outputs": [
        {
          "internalType": "bytes32",
          "name": "",
          "type": "bytes32"
        }
      ],
      "stateMutability": "view",
      "type": "function"
    },
    {
      "inputs": [
        {
          "internalType": "address",
          "name": "_adminAddress",
          "type": "address"
        }
      ],
      "name": "grantAdminRole",
      "outputs": [],
      "stateMutability": "nonpayable",
      "type": "function"
    },
    {
      "inputs": [
        {
          "internalType": "address",
          "name": "_dataProviderAddress",
          "type": "address"
        }
      ],
      "name": "grantDataProviderRole",
      "outputs": [],
      "stateMutability": "nonpayable",
      "type": "function"
    },
    {
      "inputs": [
        {
          "internalType": "bytes32",
          "name": "role",
          "type": "bytes32"
        },
        {
          "internalType": "address",
          "name": "account",
          "type": "address"
        }
      ],
      "name": "grantRole",
      "outputs": [],
      "stateMutability": "nonpayable",
      "type": "function"
    },
    {
      "inputs": [
        {
          "internalType": "bytes32",
          "name": "role",
          "type": "bytes32"
        },
        {
          "internalType": "address",
          "name": "account",
          "type": "address"
        }
      ],
      "name": "hasRole",
      "outputs": [
        {
          "internalType": "bool",
          "name": "",
          "type": "bool"
        }
      ],
      "stateMutability": "view",
      "type": "function"
    },
    {
      "inputs": [
        {
          "internalType": "uint256",
          "name": "_numberID",
          "type": "uint256"
        }
      ],
      "name": "idNumberExist",
      "outputs": [
        {
          "internalType": "bool",
          "name": "",
          "type": "bool"
        }
      ],
      "stateMutability": "view",
      "type": "function"
    },
    {
      "inputs": [
        {
          "internalType": "address",
          "name": "_userAddress",
          "type": "address"
        },
        {
          "internalType": "uint256",
          "name": "_numberID",
          "type": "uint256"
        }
      ],
      "name": "isOwnerOfID",
      "outputs": [
        {
          "internalType": "bool",
          "name": "",
          "type": "bool"
        }
      ],
      "stateMutability": "view",
      "type": "function"
    },
    {
      "inputs": [],
      "name": "myID",
      "outputs": [
        {
          "components": [
            {
              "internalType": "string",
              "name": "firstName",
              "type": "string"
            },
            {
              "internalType": "string",
              "name": "lastName",
              "type": "string"
            },
            {
              "internalType": "uint256",
              "name": "birthDate",
              "type": "uint256"
            },
            {
              "internalType": "string",
              "name": "birthPlace",
              "type": "string"
            }
          ],
          "internalType": "struct Data.idMetadata",
          "name": "",
          "type": "tuple"
        },
        {
          "internalType": "uint256",
          "name": "",
          "type": "uint256"
        }
      ],
      "stateMutability": "view",
      "type": "function"
    },
    {
      "inputs": [],
      "name": "numberID",
      "outputs": [
        {
          "internalType": "uint256",
          "name": "",
          "type": "uint256"
        }
      ],
      "stateMutability": "view",
      "type": "function"
    },
    {
      "inputs": [
        {
          "internalType": "bytes32",
          "name": "role",
          "type": "bytes32"
        },
        {
          "internalType": "address",
          "name": "callerConfirmation",
          "type": "address"
        }
      ],
      "name": "renounceRole",
      "outputs": [],
      "stateMutability": "nonpayable",
      "type": "function"
    },
    {
      "inputs": [
        {
          "internalType": "address",
          "name": "_adminAddress",
          "type": "address"
        }
      ],
      "name": "revokeAdminRole",
      "outputs": [],
      "stateMutability": "nonpayable",
      "type": "function"
    },
    {
      "inputs": [
        {
          "internalType": "address",
          "name": "_dataProviderAddress",
          "type": "address"
        }
      ],
      "name": "revokeDataProviderRole",
      "outputs": [],
      "stateMutability": "nonpayable",
      "type": "function"
    },
    {
      "inputs": [
        {
          "internalType": "bytes32",
          "name": "role",
          "type": "bytes32"
        },
        {
          "internalType": "address",
          "name": "account",
          "type": "address"
        }
      ],
      "name": "revokeRole",
      "outputs": [],
      "stateMutability": "nonpayable",
      "type": "function"
    },
    {
      "inputs": [
        {
          "internalType": "bytes4",
          "name": "interfaceId",
          "type": "bytes4"
        }
      ],
      "name": "supportsInterface",
      "outputs": [
        {
          "internalType": "bool",
          "name": "",
          "type": "bool"
        }
      ],
      "stateMutability": "view",
      "type": "function"
    }
  ],
  "bytecode": {
    "object": "0x608060405234801561001057600080fd5b5060405161150f38038061150f83398101604081905261002f9161010c565b6100597fa49807205ce4d355092ef5a8a18f56e8913cf4a201fbe287825b095693c2177582610060565b505061013c565b6000828152602081815260408083206001600160a01b038516845290915281205460ff16610102576000838152602081815260408083206001600160a01b03861684529091529020805460ff191660011790556100ba3390565b6001600160a01b0316826001600160a01b0316847f2f8788117e7eff1d82e926ec794901d17c78024a50270940304540a733656f0d60405160405180910390a4506001610106565b5060005b92915050565b60006020828403121561011e57600080fd5b81516001600160a01b038116811461013557600080fd5b9392505050565b6113c48061014b6000396000f3fe608060405234801561001057600080fd5b50600436106101425760003560e01c80637a9b55b7116100b85780639fdbded11161007c5780639fdbded1146102b6578063a217fddf146102c9578063c634b78e146102d1578063d547741f146102e4578063eaefb69f146102f7578063fb37aa231461030a57600080fd5b80637a9b55b7146102545780637c610eea1461026a57806391d148541461027d5780639a19c7b0146102905780639ec34a58146102a357600080fd5b80633aeae31d1161010a5780633aeae31d146101d15780633c013e22146101e65780633fece1e4146101f957806342b6b4431461021957806344ad6dd91461022c57806375b238fc1461023f57600080fd5b806301ffc9a714610147578063248a9ca31461016f5780632554c88a146101a05780632f2ff15d146101a957806336568abe146101be575b600080fd5b61015a610155366004610ef1565b61031d565b60405190151581526020015b60405180910390f35b61019261017d366004610f22565b60009081526020819052604090206001015490565b604051908152602001610166565b61019260015481565b6101bc6101b7366004610f52565b610354565b005b6101bc6101cc366004610f52565b61037f565b61019260008051602061134f83398151915281565b6101926101f4366004610f7e565b6103b7565b61020c610207366004610f22565b61040e565b604051610166919061103a565b6101926102273660046110f0565b61064d565b61015a61023a366004610f22565b610776565b61019260008051602061136f83398151915281565b61025c61079e565b604051610166929190611193565b61020c610278366004610f7e565b6109f8565b61015a61028b366004610f52565b610a97565b6101bc61029e366004610f7e565b610ac0565b6101bc6102b1366004610f7e565b610b83565b6101bc6102c4366004610f7e565b610c11565b610192600081565b6101bc6102df366004610f7e565b610c9f565b6101bc6102f2366004610f52565b610d2d565b61015a6103053660046111b5565b610d52565b61015a610318366004610f7e565b610d83565b60006001600160e01b03198216637965db0b60e01b148061034e57506301ffc9a760e01b6001600160e01b03198316145b92915050565b60008281526020819052604090206001015461036f81610daa565b6103798383610db7565b50505050565b6001600160a01b03811633146103a85760405163334bd91960e11b815260040160405180910390fd5b6103b28282610e49565b505050565b60006103d160008051602061134f83398151915233610a97565b6103ee5760405163602ece1760e01b815260040160405180910390fd5b506001600160a01b0381166000908152600360205260409020545b919050565b6104396040518060800160405280606081526020016060815260200160008152602001606081525090565b61045160008051602061134f83398151915233610a97565b61046e5760405163602ece1760e01b815260040160405180910390fd5b60008281526002602052604090819020815160808101909252805482908290610496906111df565b80601f01602080910402602001604051908101604052809291908181526020018280546104c2906111df565b801561050f5780601f106104e45761010080835404028352916020019161050f565b820191906000526020600020905b8154815290600101906020018083116104f257829003601f168201915b50505050508152602001600182018054610528906111df565b80601f0160208091040260200160405190810160405280929190818152602001828054610554906111df565b80156105a15780601f10610576576101008083540402835291602001916105a1565b820191906000526020600020905b81548152906001019060200180831161058457829003601f168201915b50505050508152602001600282015481526020016003820180546105c4906111df565b80601f01602080910402602001604051908101604052809291908181526020018280546105f0906111df565b801561063d5780601f106106125761010080835404028352916020019161063d565b820191906000526020600020905b81548152906001019060200180831161062057829003601f168201915b5050505050815250509050919050565b600061066760008051602061134f83398151915233610a97565b6106845760405163602ece1760e01b815260040160405180910390fd5b6001805490600061069483611219565b9091555050604080516080810182528681526020808201879052818301869052606082018590526001546000908152600290915291909120815181906106da908261128e565b50602082015160018201906106ef908261128e565b50604082015160028201556060820151600382019061070e908261128e565b50506001546001600160a01b03881660008181526003602090815260409182902084905581519384528301919091527fa7ed397f5483125a17831b40c2e607945a370e73c584e2a4f3653fdfaa54eafc92500160405180910390a15060015495945050505050565b600081815260026020819052604082200154810361079657506000919050565b506001919050565b6107c96040518060800160405280606081526020016060815260200160008152602001606081525090565b60006107e360008051602061134f83398151915233610a97565b6108005760405163602ece1760e01b815260040160405180910390fd5b336000818152600360208181526040808420548085526002835281852095909452919052805160808101909152825483908290829061083e906111df565b80601f016020809104026020016040519081016040528092919081815260200182805461086a906111df565b80156108b75780601f1061088c576101008083540402835291602001916108b7565b820191906000526020600020905b81548152906001019060200180831161089a57829003601f168201915b505050505081526020016001820180546108d0906111df565b80601f01602080910402602001604051908101604052809291908181526020018280546108fc906111df565b80156109495780601f1061091e57610100808354040283529160200191610949565b820191906000526020600020905b81548152906001019060200180831161092c57829003601f168201915b505050505081526020016002820154815260200160038201805461096c906111df565b80601f0160208091040260200160405190810160405280929190818152602001828054610998906111df565b80156109e55780601f106109ba576101008083540402835291602001916109e5565b820191906000526020600020905b8154815290600101906020018083116109c857829003601f168201915b5050505050815250509150915091509091565b610a236040518060800160405280606081526020016060815260200160008152602001606081525090565b610a3b60008051602061134f83398151915233610a97565b610a585760405163602ece1760e01b815260040160405180910390fd5b6001600160a01b0382166000908152600360209081526040808320548352600290915290819020815160808101909252805482908290610496906111df565b6000918252602082815260408084206001600160a01b0393909316845291905290205460ff1690565b610ad860008051602061136f83398151915233610a97565b610afc5760405163aa4aa31b60e01b81523360048201526024015b60405180910390fd5b6001600160a01b0381163303610b25576040516304c6326960e11b815260040160405180910390fd5b610b3d60008051602061136f83398151915282610e49565b50604080516001600160a01b03831681524260208201527fbaa15225279d357d716158b547bb431898486eabec6d894daa6c94da4c432aae91015b60405180910390a150565b610b9b60008051602061136f83398151915233610a97565b610bba5760405163aa4aa31b60e01b8152336004820152602401610af3565b610bd260008051602061134f83398151915282610e49565b50604080516001600160a01b03831681524260208201527f74849cb0bc1d54563e7ff65b5f4995a9deb7df0690b7c4bf331f36a2ab0d22c29101610b78565b610c2960008051602061136f83398151915233610a97565b610c485760405163aa4aa31b60e01b8152336004820152602401610af3565b610c6060008051602061134f83398151915282610db7565b50604080516001600160a01b03831681524260208201527f9cf7afcd6bf322b121c84d1a045cc43431399385ae183912ba9af6d0befb75839101610b78565b610cb760008051602061136f83398151915233610a97565b610cd65760405163aa4aa31b60e01b8152336004820152602401610af3565b610cee60008051602061136f83398151915282610db7565b50604080516001600160a01b03831681524260208201527f7a2a8630bec16b01fb3e26b9db9fa701c5d8dfc0923e9524f0e522e5d15b3e809101610b78565b600082815260208190526040902060010154610d4881610daa565b6103798383610e49565b6001600160a01b038216600090815260036020526040812054829003610d7a5750600161034e565b50600092915050565b6001600160a01b038116600090815260036020526040812054810361079657506000919050565b610db48133610eb4565b50565b6000610dc38383610a97565b610e41576000838152602081815260408083206001600160a01b03861684529091529020805460ff19166001179055610df93390565b6001600160a01b0316826001600160a01b0316847f2f8788117e7eff1d82e926ec794901d17c78024a50270940304540a733656f0d60405160405180910390a450600161034e565b50600061034e565b6000610e558383610a97565b15610e41576000838152602081815260408083206001600160a01b0386168085529252808320805460ff1916905551339286917ff6391f5c32d9c69d2a47ea670b442974b53935d1edc7fd64eb21e047a839171b9190a450600161034e565b610ebe8282610a97565b610eed5760405163e2517d3f60e01b81526001600160a01b038216600482015260248101839052604401610af3565b5050565b600060208284031215610f0357600080fd5b81356001600160e01b031981168114610f1b57600080fd5b9392505050565b600060208284031215610f3457600080fd5b5035919050565b80356001600160a01b038116811461040957600080fd5b60008060408385031215610f6557600080fd5b82359150610f7560208401610f3b565b90509250929050565b600060208284031215610f9057600080fd5b610f1b82610f3b565b6000815180845260005b81811015610fbf57602081850181015186830182015201610fa3565b506000602082860101526020601f19601f83011685010191505092915050565b6000815160808452610ff46080850182610f99565b90506020830151848203602086015261100d8282610f99565b91505060408301516040850152606083015184820360608601526110318282610f99565b95945050505050565b602081526000610f1b6020830184610fdf565b634e487b7160e01b600052604160045260246000fd5b600082601f83011261107457600080fd5b813567ffffffffffffffff8082111561108f5761108f61104d565b604051601f8301601f19908116603f011681019082821181831017156110b7576110b761104d565b816040528381528660208588010111156110d057600080fd5b836020870160208301376000602085830101528094505050505092915050565b600080600080600060a0868803121561110857600080fd5b61111186610f3b565b9450602086013567ffffffffffffffff8082111561112e57600080fd5b61113a89838a01611063565b9550604088013591508082111561115057600080fd5b61115c89838a01611063565b945060608801359350608088013591508082111561117957600080fd5b5061118688828901611063565b9150509295509295909350565b6040815260006111a66040830185610fdf565b90508260208301529392505050565b600080604083850312156111c857600080fd5b6111d183610f3b565b946020939093013593505050565b600181811c908216806111f357607f821691505b60208210810361121357634e487b7160e01b600052602260045260246000fd5b50919050565b60006001820161123957634e487b7160e01b600052601160045260246000fd5b5060010190565b601f8211156103b257600081815260208120601f850160051c810160208610156112675750805b601f850160051c820191505b8181101561128657828155600101611273565b505050505050565b815167ffffffffffffffff8111156112a8576112a861104d565b6112bc816112b684546111df565b84611240565b602080601f8311600181146112f157600084156112d95750858301515b600019600386901b1c1916600185901b178555611286565b600085815260208120601f198616915b8281101561132057888601518255948401946001909101908401611301565b508582101561133e5787850151600019600388901b60f8161c191681555b5050505050600190811b0190555056feb6f6b279a7a4e2aa16012cbd36fcdc1fbdb91b92fd6dab57885c9de496473a8da49807205ce4d355092ef5a8a18f56e8913cf4a201fbe287825b095693c21775a2646970667358221220ec3e447f225f32c579cc3490160eb947e7d06079f419e3dbb2fe6671412262ae64736f6c63430008140033",
    "linkReferences": {}
  },
  "methodIdentifiers": {
    "ADMIN_ROLE()": "75b238fc",
    "DATA_PROVIDER_ROLE()": "3aeae31d",
    "DEFAULT_ADMIN_ROLE()": "a217fddf",
    "addressHasIdAssigned(address)": "fb37aa23",
    "generateID(address,string,string,uint256,string)": "42b6b443",
    "getIDMetadataByAddress(address)": "7c610eea",
    "getIDMetadataByNumberID(uint256)": "3fece1e4",
    "getIDNumberByAddress(address)": "3c013e22",
    "getRoleAdmin(bytes32)": "248a9ca3",
    "grantAdminRole(address)": "c634b78e",
    "grantDataProviderRole(address)": "9fdbded1",
    "grantRole(bytes32,address)": "2f2ff15d",
    "hasRole(bytes32,address)": "91d14854",
    "idNumberExist(uint256)": "44ad6dd9",
    "isOwnerOfID(address,uint256)": "eaefb69f",
    "myID()": "7a9b55b7",
    "numberID()": "2554c88a",
    "renounceRole(bytes32,address)": "36568abe",
    "revokeAdminRole(address)": "9a19c7b0",
    "revokeDataProviderRole(address)": "9ec34a58",
    "revokeRole(bytes32,address)": "d547741f",
    "supportsInterface(bytes4)": "01ffc9a7"
  },
  "id": 20
}