{
  "abi": [
    {
      "inputs": [
        {
          "internalType": "address",
          "name": "_adminAddress",
          "type": "address"
        }
      ],
      "stateMutability": "nonpayable",
      "type": "constructor"
    },
    {
      "inputs": [],
      "name": "AccessControlBadConfirmation",
      "type": "error"
    },
    {
      "inputs": [
        {
          "internalType": "address",
          "name": "account",
          "type": "address"
        },
        {
          "internalType": "bytes32",
          "name": "neededRole",
          "type": "bytes32"
        }
      ],
      "name": "AccessControlUnauthorizedAccount",
      "type": "error"
    },
    {
      "inputs": [],
      "name": "Data__CantRevokeYourself",
      "type": "error"
    },
    {
      "inputs": [],
      "name": "Data__IDAlreadyExist",
      "type": "error"
    },
    {
      "inputs": [],
      "name": "Data__IDDoesNotExist",
      "type": "error"
    },
    {
      "inputs": [
        {
          "internalType": "address",
          "name": "",
          "type": "address"
        }
      ],
      "name": "Data__OnlyAdmin",
      "type": "error"
    },
    {
      "inputs": [],
      "name": "Data__OnlyDataProvider",
      "type": "error"
    },
    {
      "anonymous": false,
      "inputs": [
        {
          "indexed": false,
          "internalType": "address",
          "name": "adminAddress",
          "type": "address"
        },
        {
          "indexed": false,
          "internalType": "uint256",
          "name": "date",
          "type": "uint256"
        }
      ],
      "name": "Data__newAdmin",
      "type": "event"
    },
    {
      "anonymous": false,
      "inputs": [
        {
          "indexed": false,
          "internalType": "address",
          "name": "dataProviderAddress",
          "type": "address"
        },
        {
          "indexed": false,
          "internalType": "uint256",
          "name": "date",
          "type": "uint256"
        }
      ],
      "name": "Data__newDataProvider",
      "type": "event"
    },
    {
      "anonymous": false,
      "inputs": [
        {
          "indexed": false,
          "internalType": "uint256",
          "name": "numberID",
          "type": "uint256"
        },
        {
          "indexed": false,
          "internalType": "address",
          "name": "userAddress",
          "type": "address"
        }
      ],
      "name": "Data__newID",
      "type": "event"
    },
    {
      "anonymous": false,
      "inputs": [
        {
          "indexed": false,
          "internalType": "address",
          "name": "adminAddress",
          "type": "address"
        },
        {
          "indexed": false,
          "internalType": "uint256",
          "name": "date",
          "type": "uint256"
        }
      ],
      "name": "Data__removeAdmin",
      "type": "event"
    },
    {
      "anonymous": false,
      "inputs": [
        {
          "indexed": false,
          "internalType": "address",
          "name": "dataProviderAddress",
          "type": "address"
        },
        {
          "indexed": false,
          "internalType": "uint256",
          "name": "date",
          "type": "uint256"
        }
      ],
      "name": "Data__removeDataProvider",
      "type": "event"
    },
    {
      "anonymous": false,
      "inputs": [
        {
          "indexed": false,
          "internalType": "uint256",
          "name": "numberID",
          "type": "uint256"
        },
        {
          "indexed": false,
          "internalType": "address",
          "name": "userAddress",
          "type": "address"
        }
      ],
      "name": "Data__updateID",
      "type": "event"
    },
    {
      "anonymous": false,
      "inputs": [
        {
          "indexed": true,
          "internalType": "bytes32",
          "name": "role",
          "type": "bytes32"
        },
        {
          "indexed": true,
          "internalType": "bytes32",
          "name": "previousAdminRole",
          "type": "bytes32"
        },
        {
          "indexed": true,
          "internalType": "bytes32",
          "name": "newAdminRole",
          "type": "bytes32"
        }
      ],
      "name": "RoleAdminChanged",
      "type": "event"
    },
    {
      "anonymous": false,
      "inputs": [
        {
          "indexed": true,
          "internalType": "bytes32",
          "name": "role",
          "type": "bytes32"
        },
        {
          "indexed": true,
          "internalType": "address",
          "name": "account",
          "type": "address"
        },
        {
          "indexed": true,
          "internalType": "address",
          "name": "sender",
          "type": "address"
        }
      ],
      "name": "RoleGranted",
      "type": "event"
    },
    {
      "anonymous": false,
      "inputs": [
        {
          "indexed": true,
          "internalType": "bytes32",
          "name": "role",
          "type": "bytes32"
        },
        {
          "indexed": true,
          "internalType": "address",
          "name": "account",
          "type": "address"
        },
        {
          "indexed": true,
          "internalType": "address",
          "name": "sender",
          "type": "address"
        }
      ],
      "name": "RoleRevoked",
      "type": "event"
    },
    {
      "inputs": [],
      "name": "ADMIN_ROLE",
      "outputs": [
        {
          "internalType": "bytes32",
          "name": "",
          "type": "bytes32"
        }
      ],
      "stateMutability": "view",
      "type": "function"
    },
    {
      "inputs": [],
      "name": "DATA_PROVIDER_ROLE",
      "outputs": [
        {
          "internalType": "bytes32",
          "name": "",
          "type": "bytes32"
        }
      ],
      "stateMutability": "view",
      "type": "function"
    },
    {
      "inputs": [],
      "name": "DEFAULT_ADMIN_ROLE",
      "outputs": [
        {
          "internalType": "bytes32",
          "name": "",
          "type": "bytes32"
        }
      ],
      "stateMutability": "view",
      "type": "function"
    },
    {
      "inputs": [
        {
          "internalType": "address",
          "name": "_userAddress",
          "type": "address"
        }
      ],
      "name": "addressHasIdAssigned",
      "outputs": [
        {
          "internalType": "bool",
          "name": "",
          "type": "bool"
        }
      ],
      "stateMutability": "view",
      "type": "function"
    },
    {
      "inputs": [
        {
          "internalType": "address",
          "name": "userAddress",
          "type": "address"
        },
        {
          "internalType": "string",
          "name": "firstName",
          "type": "string"
        },
        {
          "internalType": "string",
          "name": "lastName",
          "type": "string"
        },
        {
          "internalType": "uint256",
          "name": "birthDate",
          "type": "uint256"
        },
        {
          "internalType": "string",
          "name": "birthPlace",
          "type": "string"
        }
      ],
      "name": "generateID",
      "outputs": [
        {
          "internalType": "uint256",
          "name": "",
          "type": "uint256"
        }
      ],
      "stateMutability": "nonpayable",
      "type": "function"
    },
    {
      "inputs": [
        {
          "internalType": "address",
          "name": "_userAddress",
          "type": "address"
        }
      ],
      "name": "getIDMetadataByAddress",
      "outputs": [
        {
          "components": [
            {
              "internalType": "string",
              "name": "firstName",
              "type": "string"
            },
            {
              "internalType": "string",
              "name": "lastName",
              "type": "string"
            },
            {
              "internalType": "uint256",
              "name": "birthDate",
              "type": "uint256"
            },
            {
              "internalType": "string",
              "name": "birthPlace",
              "type": "string"
            }
          ],
          "internalType": "struct Data.idMetadata",
          "name": "",
          "type": "tuple"
        }
      ],
      "stateMutability": "view",
      "type": "function"
    },
    {
      "inputs": [
        {
          "internalType": "uint256",
          "name": "_numberID",
          "type": "uint256"
        }
      ],
      "name": "getIDMetadataByNumberID",
      "outputs": [
        {
          "components": [
            {
              "internalType": "string",
              "name": "firstName",
              "type": "string"
            },
            {
              "internalType": "string",
              "name": "lastName",
              "type": "string"
            },
            {
              "internalType": "uint256",
              "name": "birthDate",
              "type": "uint256"
            },
            {
              "internalType": "string",
              "name": "birthPlace",
              "type": "string"
            }
          ],
          "internalType": "struct Data.idMetadata",
          "name": "",
          "type": "tuple"
        }
      ],
      "stateMutability": "view",
      "type": "function"
    },
    {
      "inputs": [
        {
          "internalType": "address",
          "name": "_userAddress",
          "type": "address"
        }
      ],
      "name": "getIDNumberByAddress",
      "outputs": [
        {
          "internalType": "uint256",
          "name": "",
          "type": "uint256"
        }
      ],
      "stateMutability": "view",
      "type": "function"
    },
    {
      "inputs": [
        {
          "internalType": "bytes32",
          "name": "role",
          "type": "bytes32"
        }
      ],
      "name": "getRoleAdmin",
      "outputs": [
        {
          "internalType": "bytes32",
          "name": "",
          "type": "bytes32"
        }
      ],
      "stateMutability": "view",
      "type": "function"
    },
    {
      "inputs": [
        {
          "internalType": "address",
          "name": "_adminAddress",
          "type": "address"
        }
      ],
      "name": "grantAdminRole",
      "outputs": [
        {
          "internalType": "bool",
          "name": "",
          "type": "bool"
        },
        {
          "internalType": "address",
          "name": "",
          "type": "address"
        }
      ],
      "stateMutability": "nonpayable",
      "type": "function"
    },
    {
      "inputs": [
        {
          "internalType": "address",
          "name": "_dataProviderAddress",
          "type": "address"
        }
      ],
      "name": "grantDataProviderRole",
      "outputs": [
        {
          "internalType": "bool",
          "name": "",
          "type": "bool"
        },
        {
          "internalType": "address",
          "name": "",
          "type": "address"
        }
      ],
      "stateMutability": "nonpayable",
      "type": "function"
    },
    {
      "inputs": [
        {
          "internalType": "bytes32",
          "name": "role",
          "type": "bytes32"
        },
        {
          "internalType": "address",
          "name": "account",
          "type": "address"
        }
      ],
      "name": "grantRole",
      "outputs": [],
      "stateMutability": "nonpayable",
      "type": "function"
    },
    {
      "inputs": [
        {
          "internalType": "bytes32",
          "name": "role",
          "type": "bytes32"
        },
        {
          "internalType": "address",
          "name": "account",
          "type": "address"
        }
      ],
      "name": "hasRole",
      "outputs": [
        {
          "internalType": "bool",
          "name": "",
          "type": "bool"
        }
      ],
      "stateMutability": "view",
      "type": "function"
    },
    {
      "inputs": [
        {
          "internalType": "uint256",
          "name": "_numberID",
          "type": "uint256"
        }
      ],
      "name": "idNumberExist",
      "outputs": [
        {
          "internalType": "bool",
          "name": "",
          "type": "bool"
        }
      ],
      "stateMutability": "view",
      "type": "function"
    },
    {
      "inputs": [
        {
          "internalType": "address",
          "name": "_userAddress",
          "type": "address"
        },
        {
          "internalType": "uint256",
          "name": "_numberID",
          "type": "uint256"
        }
      ],
      "name": "isOwnerOfID",
      "outputs": [
        {
          "internalType": "bool",
          "name": "",
          "type": "bool"
        }
      ],
      "stateMutability": "view",
      "type": "function"
    },
    {
      "inputs": [],
      "name": "myID",
      "outputs": [
        {
          "components": [
            {
              "internalType": "string",
              "name": "firstName",
              "type": "string"
            },
            {
              "internalType": "string",
              "name": "lastName",
              "type": "string"
            },
            {
              "internalType": "uint256",
              "name": "birthDate",
              "type": "uint256"
            },
            {
              "internalType": "string",
              "name": "birthPlace",
              "type": "string"
            }
          ],
          "internalType": "struct Data.idMetadata",
          "name": "",
          "type": "tuple"
        },
        {
          "internalType": "uint256",
          "name": "",
          "type": "uint256"
        }
      ],
      "stateMutability": "view",
      "type": "function"
    },
    {
      "inputs": [],
      "name": "numberID",
      "outputs": [
        {
          "internalType": "uint256",
          "name": "",
          "type": "uint256"
        }
      ],
      "stateMutability": "view",
      "type": "function"
    },
    {
      "inputs": [
        {
          "internalType": "bytes32",
          "name": "role",
          "type": "bytes32"
        },
        {
          "internalType": "address",
          "name": "callerConfirmation",
          "type": "address"
        }
      ],
      "name": "renounceRole",
      "outputs": [],
      "stateMutability": "nonpayable",
      "type": "function"
    },
    {
      "inputs": [
        {
          "internalType": "address",
          "name": "_adminAddress",
          "type": "address"
        }
      ],
      "name": "revokeAdminRole",
      "outputs": [],
      "stateMutability": "nonpayable",
      "type": "function"
    },
    {
      "inputs": [
        {
          "internalType": "address",
          "name": "_dataProviderAddress",
          "type": "address"
        }
      ],
      "name": "revokeDataProviderRole",
      "outputs": [],
      "stateMutability": "nonpayable",
      "type": "function"
    },
    {
      "inputs": [
        {
          "internalType": "bytes32",
          "name": "role",
          "type": "bytes32"
        },
        {
          "internalType": "address",
          "name": "account",
          "type": "address"
        }
      ],
      "name": "revokeRole",
      "outputs": [],
      "stateMutability": "nonpayable",
      "type": "function"
    },
    {
      "inputs": [
        {
          "internalType": "bytes4",
          "name": "interfaceId",
          "type": "bytes4"
        }
      ],
      "name": "supportsInterface",
      "outputs": [
        {
          "internalType": "bool",
          "name": "",
          "type": "bool"
        }
      ],
      "stateMutability": "view",
      "type": "function"
    }
  ],
  "bytecode": {
    "object": "0x608060405234801561001057600080fd5b5060405161150e38038061150e83398101604081905261002f9161010c565b6100597fa49807205ce4d355092ef5a8a18f56e8913cf4a201fbe287825b095693c2177582610060565b505061013c565b6000828152602081815260408083206001600160a01b038516845290915281205460ff16610102576000838152602081815260408083206001600160a01b03861684529091529020805460ff191660011790556100ba3390565b6001600160a01b0316826001600160a01b0316847f2f8788117e7eff1d82e926ec794901d17c78024a50270940304540a733656f0d60405160405180910390a4506001610106565b5060005b92915050565b60006020828403121561011e57600080fd5b81516001600160a01b038116811461013557600080fd5b9392505050565b6113c38061014b6000396000f3fe608060405234801561001057600080fd5b50600436106101425760003560e01c80637a9b55b7116100b85780639fdbded11161007c5780639fdbded1146102b6578063a217fddf146102e8578063c634b78e146102f0578063d547741f14610303578063eaefb69f14610316578063fb37aa231461032957600080fd5b80637a9b55b7146102545780637c610eea1461026a57806391d148541461027d5780639a19c7b0146102905780639ec34a58146102a357600080fd5b80633aeae31d1161010a5780633aeae31d146101d15780633c013e22146101e65780633fece1e4146101f957806342b6b4431461021957806344ad6dd91461022c57806375b238fc1461023f57600080fd5b806301ffc9a714610147578063248a9ca31461016f5780632554c88a146101a05780632f2ff15d146101a957806336568abe146101be575b600080fd5b61015a610155366004610ef0565b61033c565b60405190151581526020015b60405180910390f35b61019261017d366004610f21565b60009081526020819052604090206001015490565b604051908152602001610166565b61019260015481565b6101bc6101b7366004610f51565b610373565b005b6101bc6101cc366004610f51565b61039e565b61019260008051602061134e83398151915281565b6101926101f4366004610f7d565b6103d6565b61020c610207366004610f21565b61042d565b6040516101669190611039565b6101926102273660046110ef565b61066c565b61015a61023a366004610f21565b61079c565b61019260008051602061136e83398151915281565b61025c6107c4565b604051610166929190611192565b61020c610278366004610f7d565b6109ea565b61015a61028b366004610f51565b610a89565b6101bc61029e366004610f7d565b610ab2565b6101bc6102b1366004610f7d565b610b70565b6102c96102c4366004610f7d565b610bfe565b6040805192151583526001600160a01b03909116602083015201610166565b610192600081565b6102c96102fe366004610f7d565b610c9b565b6101bc610311366004610f51565b610d2c565b61015a6103243660046111b4565b610d51565b61015a610337366004610f7d565b610d82565b60006001600160e01b03198216637965db0b60e01b148061036d57506301ffc9a760e01b6001600160e01b03198316145b92915050565b60008281526020819052604090206001015461038e81610da9565b6103988383610db6565b50505050565b6001600160a01b03811633146103c75760405163334bd91960e11b815260040160405180910390fd5b6103d18282610e48565b505050565b60006103f060008051602061134e83398151915233610a89565b61040d5760405163602ece1760e01b815260040160405180910390fd5b506001600160a01b0381166000908152600360205260409020545b919050565b6104586040518060800160405280606081526020016060815260200160008152602001606081525090565b61047060008051602061134e83398151915233610a89565b61048d5760405163602ece1760e01b815260040160405180910390fd5b600082815260026020526040908190208151608081019092528054829082906104b5906111de565b80601f01602080910402602001604051908101604052809291908181526020018280546104e1906111de565b801561052e5780601f106105035761010080835404028352916020019161052e565b820191906000526020600020905b81548152906001019060200180831161051157829003601f168201915b50505050508152602001600182018054610547906111de565b80601f0160208091040260200160405190810160405280929190818152602001828054610573906111de565b80156105c05780601f10610595576101008083540402835291602001916105c0565b820191906000526020600020905b8154815290600101906020018083116105a357829003601f168201915b50505050508152602001600282015481526020016003820180546105e3906111de565b80601f016020809104026020016040519081016040528092919081815260200182805461060f906111de565b801561065c5780601f106106315761010080835404028352916020019161065c565b820191906000526020600020905b81548152906001019060200180831161063f57829003601f168201915b5050505050815250509050919050565b600061068660008051602061136e83398151915233610a89565b6106aa5760405163aa4aa31b60e01b81523360048201526024015b60405180910390fd5b600180549060006106ba83611218565b909155505060408051608081018252868152602080820187905281830186905260608201859052600154600090815260029091529190912081518190610700908261128d565b5060208201516001820190610715908261128d565b506040820151600282015560608201516003820190610734908261128d565b50506001546001600160a01b03881660008181526003602090815260409182902084905581519384528301919091527fa7ed397f5483125a17831b40c2e607945a370e73c584e2a4f3653fdfaa54eafc92500160405180910390a15060015495945050505050565b60008181526002602081905260408220015481036107bc57506000919050565b506001919050565b6107ef6040518060800160405280606081526020016060815260200160008152602001606081525090565b3360008181526003602081815260408084205480855260028352818520958552929091528051608081019091528354929392839082908290610830906111de565b80601f016020809104026020016040519081016040528092919081815260200182805461085c906111de565b80156108a95780601f1061087e576101008083540402835291602001916108a9565b820191906000526020600020905b81548152906001019060200180831161088c57829003601f168201915b505050505081526020016001820180546108c2906111de565b80601f01602080910402602001604051908101604052809291908181526020018280546108ee906111de565b801561093b5780601f106109105761010080835404028352916020019161093b565b820191906000526020600020905b81548152906001019060200180831161091e57829003601f168201915b505050505081526020016002820154815260200160038201805461095e906111de565b80601f016020809104026020016040519081016040528092919081815260200182805461098a906111de565b80156109d75780601f106109ac576101008083540402835291602001916109d7565b820191906000526020600020905b8154815290600101906020018083116109ba57829003601f168201915b5050505050815250509150915091509091565b610a156040518060800160405280606081526020016060815260200160008152602001606081525090565b610a2d60008051602061134e83398151915233610a89565b610a4a5760405163602ece1760e01b815260040160405180910390fd5b6001600160a01b03821660009081526003602090815260408083205483526002909152908190208151608081019092528054829082906104b5906111de565b6000918252602082815260408084206001600160a01b0393909316845291905290205460ff1690565b610aca60008051602061136e83398151915233610a89565b610ae95760405163aa4aa31b60e01b81523360048201526024016106a1565b6001600160a01b0381163303610b12576040516304c6326960e11b815260040160405180910390fd5b610b2a60008051602061136e83398151915282610e48565b50604080516001600160a01b03831681524260208201527fbaa15225279d357d716158b547bb431898486eabec6d894daa6c94da4c432aae91015b60405180910390a150565b610b8860008051602061136e83398151915233610a89565b610ba75760405163aa4aa31b60e01b81523360048201526024016106a1565b610bbf60008051602061134e83398151915282610e48565b50604080516001600160a01b03831681524260208201527f74849cb0bc1d54563e7ff65b5f4995a9deb7df0690b7c4bf331f36a2ab0d22c29101610b65565b600080610c1960008051602061136e83398151915233610a89565b610c385760405163aa4aa31b60e01b81523360048201526024016106a1565b610c5060008051602061134e83398151915284610db6565b50604080516001600160a01b03851681524260208201527f9cf7afcd6bf322b121c84d1a045cc43431399385ae183912ba9af6d0befb758391015b60405180910390a1506001905091565b600080610cb660008051602061136e83398151915233610a89565b610cd55760405163aa4aa31b60e01b81523360048201526024016106a1565b610ced60008051602061136e83398151915284610db6565b50604080516001600160a01b03851681524260208201527f7a2a8630bec16b01fb3e26b9db9fa701c5d8dfc0923e9524f0e522e5d15b3e809101610c8b565b600082815260208190526040902060010154610d4781610da9565b6103988383610e48565b6001600160a01b038216600090815260036020526040812054829003610d795750600161036d565b50600092915050565b6001600160a01b03811660009081526003602052604081205481036107bc57506000919050565b610db38133610eb3565b50565b6000610dc28383610a89565b610e40576000838152602081815260408083206001600160a01b03861684529091529020805460ff19166001179055610df83390565b6001600160a01b0316826001600160a01b0316847f2f8788117e7eff1d82e926ec794901d17c78024a50270940304540a733656f0d60405160405180910390a450600161036d565b50600061036d565b6000610e548383610a89565b15610e40576000838152602081815260408083206001600160a01b0386168085529252808320805460ff1916905551339286917ff6391f5c32d9c69d2a47ea670b442974b53935d1edc7fd64eb21e047a839171b9190a450600161036d565b610ebd8282610a89565b610eec5760405163e2517d3f60e01b81526001600160a01b0382166004820152602481018390526044016106a1565b5050565b600060208284031215610f0257600080fd5b81356001600160e01b031981168114610f1a57600080fd5b9392505050565b600060208284031215610f3357600080fd5b5035919050565b80356001600160a01b038116811461042857600080fd5b60008060408385031215610f6457600080fd5b82359150610f7460208401610f3a565b90509250929050565b600060208284031215610f8f57600080fd5b610f1a82610f3a565b6000815180845260005b81811015610fbe57602081850181015186830182015201610fa2565b506000602082860101526020601f19601f83011685010191505092915050565b6000815160808452610ff36080850182610f98565b90506020830151848203602086015261100c8282610f98565b91505060408301516040850152606083015184820360608601526110308282610f98565b95945050505050565b602081526000610f1a6020830184610fde565b634e487b7160e01b600052604160045260246000fd5b600082601f83011261107357600080fd5b813567ffffffffffffffff8082111561108e5761108e61104c565b604051601f8301601f19908116603f011681019082821181831017156110b6576110b661104c565b816040528381528660208588010111156110cf57600080fd5b836020870160208301376000602085830101528094505050505092915050565b600080600080600060a0868803121561110757600080fd5b61111086610f3a565b9450602086013567ffffffffffffffff8082111561112d57600080fd5b61113989838a01611062565b9550604088013591508082111561114f57600080fd5b61115b89838a01611062565b945060608801359350608088013591508082111561117857600080fd5b5061118588828901611062565b9150509295509295909350565b6040815260006111a56040830185610fde565b90508260208301529392505050565b600080604083850312156111c757600080fd5b6111d083610f3a565b946020939093013593505050565b600181811c908216806111f257607f821691505b60208210810361121257634e487b7160e01b600052602260045260246000fd5b50919050565b60006001820161123857634e487b7160e01b600052601160045260246000fd5b5060010190565b601f8211156103d157600081815260208120601f850160051c810160208610156112665750805b601f850160051c820191505b8181101561128557828155600101611272565b505050505050565b815167ffffffffffffffff8111156112a7576112a761104c565b6112bb816112b584546111de565b8461123f565b602080601f8311600181146112f057600084156112d85750858301515b600019600386901b1c1916600185901b178555611285565b600085815260208120601f198616915b8281101561131f57888601518255948401946001909101908401611300565b508582101561133d5787850151600019600388901b60f8161c191681555b5050505050600190811b0190555056feb6f6b279a7a4e2aa16012cbd36fcdc1fbdb91b92fd6dab57885c9de496473a8da49807205ce4d355092ef5a8a18f56e8913cf4a201fbe287825b095693c21775a264697066735822122033bb8d3109f6e25c001ff735aaf1df8eccb743e60a05256b99e4c71cda9e3d6b64736f6c63430008140033",
    "linkReferences": {}
  },
  "methodIdentifiers": {
    "ADMIN_ROLE()": "75b238fc",
    "DATA_PROVIDER_ROLE()": "3aeae31d",
    "DEFAULT_ADMIN_ROLE()": "a217fddf",
    "addressHasIdAssigned(address)": "fb37aa23",
    "generateID(address,string,string,uint256,string)": "42b6b443",
    "getIDMetadataByAddress(address)": "7c610eea",
    "getIDMetadataByNumberID(uint256)": "3fece1e4",
    "getIDNumberByAddress(address)": "3c013e22",
    "getRoleAdmin(bytes32)": "248a9ca3",
    "grantAdminRole(address)": "c634b78e",
    "grantDataProviderRole(address)": "9fdbded1",
    "grantRole(bytes32,address)": "2f2ff15d",
    "hasRole(bytes32,address)": "91d14854",
    "idNumberExist(uint256)": "44ad6dd9",
    "isOwnerOfID(address,uint256)": "eaefb69f",
    "myID()": "7a9b55b7",
    "numberID()": "2554c88a",
    "renounceRole(bytes32,address)": "36568abe",
    "revokeAdminRole(address)": "9a19c7b0",
    "revokeDataProviderRole(address)": "9ec34a58",
    "revokeRole(bytes32,address)": "d547741f",
    "supportsInterface(bytes4)": "01ffc9a7"
  },
  "id": 20
}