{
  "abi": [
    {
      "inputs": [
        {
          "internalType": "address",
          "name": "_DataAddress",
          "type": "address"
        },
        {
          "internalType": "address",
          "name": "_adminAddress",
          "type": "address"
        },
        {
          "internalType": "string",
          "name": "_firstNameAdmin",
          "type": "string"
        },
        {
          "internalType": "string",
          "name": "_lastNameAdmin",
          "type": "string"
        }
      ],
      "stateMutability": "nonpayable",
      "type": "constructor"
    },
    {
      "inputs": [],
      "name": "AccessControlBadConfirmation",
      "type": "error"
    },
    {
      "inputs": [
        {
          "internalType": "address",
          "name": "account",
          "type": "address"
        },
        {
          "internalType": "bytes32",
          "name": "neededRole",
          "type": "bytes32"
        }
      ],
      "name": "AccessControlUnauthorizedAccount",
      "type": "error"
    },
    {
      "inputs": [],
      "name": "Service__AddressDoesntHaveIDAssigned",
      "type": "error"
    },
    {
      "inputs": [],
      "name": "Service__CantRemoveYourself",
      "type": "error"
    },
    {
      "inputs": [],
      "name": "Service__EmployeeAlreadyEgress",
      "type": "error"
    },
    {
      "inputs": [],
      "name": "Service__EmployeeExist",
      "type": "error"
    },
    {
      "inputs": [],
      "name": "Service__EmployeeNotExist",
      "type": "error"
    },
    {
      "inputs": [],
      "name": "Service__IDDontExist",
      "type": "error"
    },
    {
      "inputs": [],
      "name": "Service__OnlyAdmin",
      "type": "error"
    },
    {
      "inputs": [],
      "name": "Service__OnlyGeneralEmployee",
      "type": "error"
    },
    {
      "inputs": [],
      "name": "Service__OnlyManagerEmployee",
      "type": "error"
    },
    {
      "inputs": [],
      "name": "Service__RoleNotValid",
      "type": "error"
    },
    {
      "anonymous": false,
      "inputs": [
        {
          "indexed": true,
          "internalType": "bytes32",
          "name": "role",
          "type": "bytes32"
        },
        {
          "indexed": true,
          "internalType": "bytes32",
          "name": "previousAdminRole",
          "type": "bytes32"
        },
        {
          "indexed": true,
          "internalType": "bytes32",
          "name": "newAdminRole",
          "type": "bytes32"
        }
      ],
      "name": "RoleAdminChanged",
      "type": "event"
    },
    {
      "anonymous": false,
      "inputs": [
        {
          "indexed": true,
          "internalType": "bytes32",
          "name": "role",
          "type": "bytes32"
        },
        {
          "indexed": true,
          "internalType": "address",
          "name": "account",
          "type": "address"
        },
        {
          "indexed": true,
          "internalType": "address",
          "name": "sender",
          "type": "address"
        }
      ],
      "name": "RoleGranted",
      "type": "event"
    },
    {
      "anonymous": false,
      "inputs": [
        {
          "indexed": true,
          "internalType": "bytes32",
          "name": "role",
          "type": "bytes32"
        },
        {
          "indexed": true,
          "internalType": "address",
          "name": "account",
          "type": "address"
        },
        {
          "indexed": true,
          "internalType": "address",
          "name": "sender",
          "type": "address"
        }
      ],
      "name": "RoleRevoked",
      "type": "event"
    },
    {
      "inputs": [],
      "name": "ADMIN_ROLE",
      "outputs": [
        {
          "internalType": "bytes32",
          "name": "",
          "type": "bytes32"
        }
      ],
      "stateMutability": "view",
      "type": "function"
    },
    {
      "inputs": [],
      "name": "DEFAULT_ADMIN_ROLE",
      "outputs": [
        {
          "internalType": "bytes32",
          "name": "",
          "type": "bytes32"
        }
      ],
      "stateMutability": "view",
      "type": "function"
    },
    {
      "inputs": [],
      "name": "DataAddress",
      "outputs": [
        {
          "internalType": "address",
          "name": "",
          "type": "address"
        }
      ],
      "stateMutability": "view",
      "type": "function"
    },
    {
      "inputs": [],
      "name": "GENERAL_EMPLOYEE_ROLE",
      "outputs": [
        {
          "internalType": "bytes32",
          "name": "",
          "type": "bytes32"
        }
      ],
      "stateMutability": "view",
      "type": "function"
    },
    {
      "inputs": [],
      "name": "MANAGER_EMPLOYEE_ROLE",
      "outputs": [
        {
          "internalType": "bytes32",
          "name": "",
          "type": "bytes32"
        }
      ],
      "stateMutability": "view",
      "type": "function"
    },
    {
      "inputs": [
        {
          "internalType": "address",
          "name": "_userAddress",
          "type": "address"
        },
        {
          "internalType": "string",
          "name": "_firstName",
          "type": "string"
        },
        {
          "internalType": "string",
          "name": "_lastName",
          "type": "string"
        },
        {
          "internalType": "uint256",
          "name": "_birthDate",
          "type": "uint256"
        },
        {
          "internalType": "string",
          "name": "_birthPlace",
          "type": "string"
        }
      ],
      "name": "generateId",
      "outputs": [
        {
          "internalType": "uint256",
          "name": "",
          "type": "uint256"
        }
      ],
      "stateMutability": "nonpayable",
      "type": "function"
    },
    {
      "inputs": [
        {
          "internalType": "address",
          "name": "_employeeAddress",
          "type": "address"
        }
      ],
      "name": "getEmployee",
      "outputs": [
        {
          "components": [
            {
              "internalType": "string",
              "name": "firstName",
              "type": "string"
            },
            {
              "internalType": "string",
              "name": "lastName",
              "type": "string"
            },
            {
              "internalType": "uint256",
              "name": "idEmployee",
              "type": "uint256"
            },
            {
              "internalType": "uint8",
              "name": "role",
              "type": "uint8"
            },
            {
              "internalType": "uint256",
              "name": "ingressDate",
              "type": "uint256"
            },
            {
              "internalType": "uint256",
              "name": "egressDate",
              "type": "uint256"
            }
          ],
          "internalType": "struct Service.EmployeeMetadata",
          "name": "",
          "type": "tuple"
        }
      ],
      "stateMutability": "view",
      "type": "function"
    },
    {
      "inputs": [
        {
          "internalType": "address",
          "name": "_userAddress",
          "type": "address"
        }
      ],
      "name": "getIDMetadataByAddress",
      "outputs": [
        {
          "components": [
            {
              "internalType": "string",
              "name": "firstName",
              "type": "string"
            },
            {
              "internalType": "string",
              "name": "lastName",
              "type": "string"
            },
            {
              "internalType": "uint256",
              "name": "birthDate",
              "type": "uint256"
            },
            {
              "internalType": "string",
              "name": "birthPlace",
              "type": "string"
            }
          ],
          "internalType": "struct Data.idMetadata",
          "name": "",
          "type": "tuple"
        }
      ],
      "stateMutability": "view",
      "type": "function"
    },
    {
      "inputs": [
        {
          "internalType": "uint256",
          "name": "_numberID",
          "type": "uint256"
        }
      ],
      "name": "getIDMetadataByNumberID",
      "outputs": [
        {
          "components": [
            {
              "internalType": "string",
              "name": "firstName",
              "type": "string"
            },
            {
              "internalType": "string",
              "name": "lastName",
              "type": "string"
            },
            {
              "internalType": "uint256",
              "name": "birthDate",
              "type": "uint256"
            },
            {
              "internalType": "string",
              "name": "birthPlace",
              "type": "string"
            }
          ],
          "internalType": "struct Data.idMetadata",
          "name": "",
          "type": "tuple"
        }
      ],
      "stateMutability": "view",
      "type": "function"
    },
    {
      "inputs": [
        {
          "internalType": "address",
          "name": "_userAddress",
          "type": "address"
        }
      ],
      "name": "getIDNumberByAddress",
      "outputs": [
        {
          "internalType": "uint256",
          "name": "",
          "type": "uint256"
        }
      ],
      "stateMutability": "view",
      "type": "function"
    },
    {
      "inputs": [],
      "name": "getMyInfo",
      "outputs": [
        {
          "components": [
            {
              "internalType": "string",
              "name": "firstName",
              "type": "string"
            },
            {
              "internalType": "string",
              "name": "lastName",
              "type": "string"
            },
            {
              "internalType": "uint256",
              "name": "idEmployee",
              "type": "uint256"
            },
            {
              "internalType": "uint8",
              "name": "role",
              "type": "uint8"
            },
            {
              "internalType": "uint256",
              "name": "ingressDate",
              "type": "uint256"
            },
            {
              "internalType": "uint256",
              "name": "egressDate",
              "type": "uint256"
            }
          ],
          "internalType": "struct Service.EmployeeMetadata",
          "name": "",
          "type": "tuple"
        }
      ],
      "stateMutability": "view",
      "type": "function"
    },
    {
      "inputs": [
        {
          "internalType": "bytes32",
          "name": "role",
          "type": "bytes32"
        }
      ],
      "name": "getRoleAdmin",
      "outputs": [
        {
          "internalType": "bytes32",
          "name": "",
          "type": "bytes32"
        }
      ],
      "stateMutability": "view",
      "type": "function"
    },
    {
      "inputs": [
        {
          "internalType": "bytes32",
          "name": "role",
          "type": "bytes32"
        },
        {
          "internalType": "address",
          "name": "account",
          "type": "address"
        }
      ],
      "name": "grantRole",
      "outputs": [],
      "stateMutability": "nonpayable",
      "type": "function"
    },
    {
      "inputs": [
        {
          "internalType": "bytes32",
          "name": "role",
          "type": "bytes32"
        },
        {
          "internalType": "address",
          "name": "account",
          "type": "address"
        }
      ],
      "name": "hasRole",
      "outputs": [
        {
          "internalType": "bool",
          "name": "",
          "type": "bool"
        }
      ],
      "stateMutability": "view",
      "type": "function"
    },
    {
      "inputs": [
        {
          "internalType": "address",
          "name": "_employeeAddress",
          "type": "address"
        },
        {
          "internalType": "string",
          "name": "_firstName",
          "type": "string"
        },
        {
          "internalType": "string",
          "name": "_lastName",
          "type": "string"
        },
        {
          "internalType": "uint8",
          "name": "_role",
          "type": "uint8"
        }
      ],
      "name": "newEmployee",
      "outputs": [
        {
          "internalType": "uint256",
          "name": "",
          "type": "uint256"
        }
      ],
      "stateMutability": "nonpayable",
      "type": "function"
    },
    {
      "inputs": [],
      "name": "numberEmployee",
      "outputs": [
        {
          "internalType": "uint256",
          "name": "",
          "type": "uint256"
        }
      ],
      "stateMutability": "view",
      "type": "function"
    },
    {
      "inputs": [
        {
          "internalType": "address",
          "name": "_employeeAddress",
          "type": "address"
        }
      ],
      "name": "removeEmployee",
      "outputs": [],
      "stateMutability": "nonpayable",
      "type": "function"
    },
    {
      "inputs": [
        {
          "internalType": "bytes32",
          "name": "role",
          "type": "bytes32"
        },
        {
          "internalType": "address",
          "name": "callerConfirmation",
          "type": "address"
        }
      ],
      "name": "renounceRole",
      "outputs": [],
      "stateMutability": "nonpayable",
      "type": "function"
    },
    {
      "inputs": [
        {
          "internalType": "bytes32",
          "name": "role",
          "type": "bytes32"
        },
        {
          "internalType": "address",
          "name": "account",
          "type": "address"
        }
      ],
      "name": "revokeRole",
      "outputs": [],
      "stateMutability": "nonpayable",
      "type": "function"
    },
    {
      "inputs": [
        {
          "internalType": "bytes4",
          "name": "interfaceId",
          "type": "bytes4"
        }
      ],
      "name": "supportsInterface",
      "outputs": [
        {
          "internalType": "bool",
          "name": "",
          "type": "bool"
        }
      ],
      "stateMutability": "view",
      "type": "function"
    }
  ],
  "bytecode": {
    "object": "0x60806040523480156200001157600080fd5b5060405162001da038038062001da08339810160408190526200003491620002d8565b600180546001600160a01b0319166001600160a01b0386161790556200007b7fa49807205ce4d355092ef5a8a18f56e8913cf4a201fbe287825b095693c217758462000147565b50600280549060006200008e8362000368565b90915550506040805160c08101825283815260208082018490526002548284015260016060830152426080830152600060a083018190526001600160a01b038716815260039091529190912081518190620000ea90826200041f565b50602082015160018201906200010190826200041f565b5060408201516002820155606082015160038201805460ff191660ff9092169190911790556080820151600482015560a09091015160059091015550620004eb92505050565b6000828152602081815260408083206001600160a01b038516845290915281205460ff16620001ec576000838152602081815260408083206001600160a01b03861684529091529020805460ff19166001179055620001a33390565b6001600160a01b0316826001600160a01b0316847f2f8788117e7eff1d82e926ec794901d17c78024a50270940304540a733656f0d60405160405180910390a4506001620001f0565b5060005b92915050565b80516001600160a01b03811681146200020e57600080fd5b919050565b634e487b7160e01b600052604160045260246000fd5b600082601f8301126200023b57600080fd5b81516001600160401b038082111562000258576200025862000213565b604051601f8301601f19908116603f0116810190828211818310171562000283576200028362000213565b81604052838152602092508683858801011115620002a057600080fd5b600091505b83821015620002c45785820183015181830184015290820190620002a5565b600093810190920192909252949350505050565b60008060008060808587031215620002ef57600080fd5b620002fa85620001f6565b93506200030a60208601620001f6565b60408601519093506001600160401b03808211156200032857600080fd5b620003368883890162000229565b935060608701519150808211156200034d57600080fd5b506200035c8782880162000229565b91505092959194509250565b6000600182016200038957634e487b7160e01b600052601160045260246000fd5b5060010190565b600181811c90821680620003a557607f821691505b602082108103620003c657634e487b7160e01b600052602260045260246000fd5b50919050565b601f8211156200041a57600081815260208120601f850160051c81016020861015620003f55750805b601f850160051c820191505b81811015620004165782815560010162000401565b5050505b505050565b81516001600160401b038111156200043b576200043b62000213565b62000453816200044c845462000390565b84620003cc565b602080601f8311600181146200048b5760008415620004725750858301515b600019600386901b1c1916600185901b17855562000416565b600085815260208120601f198616915b82811015620004bc578886015182559484019460019091019084016200049b565b5085821015620004db5787850151600019600388901b60f8161c191681555b5050505050600190811b01905550565b6118a580620004fb6000396000f3fe608060405234801561001057600080fd5b506004361061012c5760003560e01c80638b89cb3b116100ad578063d108177a11610071578063d108177a14610281578063d547741f14610294578063dfbeeeb7146102a7578063f0a7c5f9146102bc578063f4b9085e146102e757600080fd5b80638b89cb3b1461023557806391d148541461024a57806392401a0d1461025d578063a217fddf14610266578063b527be8b1461026e57600080fd5b80633c013e22116100f45780633c013e22146101d25780633fece1e4146101e557806375b238fc146102055780637c610eea1461021a5780637daa10ce1461022d57600080fd5b806301ffc9a714610131578063248a9ca3146101595780632f2ff15d1461018a57806332648e091461019f57806336568abe146101bf575b600080fd5b61014461013f36600461110b565b6102fa565b60405190151581526020015b60405180910390f35b61017c61016736600461113c565b60009081526020819052604090206001015490565b604051908152602001610150565b61019d61019836600461116c565b610331565b005b6101b26101ad366004611198565b61035c565b6040516101509190611203565b61019d6101cd36600461116c565b610547565b61017c6101e0366004611198565b61057f565b6101f86101f336600461113c565b6106d2565b6040516101509190611274565b61017c60008051602061183083398151915281565b6101f8610228366004611198565b610851565b6101b2610991565b61017c60008051602061181083398151915281565b61014461025836600461116c565b610b3b565b61017c60025481565b61017c600081565b61017c61027c3660046113cd565b610b64565b61019d61028f366004611198565b610c20565b61019d6102a236600461116c565b610dd8565b61017c60008051602061185083398151915281565b6001546102cf906001600160a01b031681565b6040516001600160a01b039091168152602001610150565b61017c6102f5366004611470565b610dfd565b60006001600160e01b03198216637965db0b60e01b148061032b57506301ffc9a760e01b6001600160e01b03198316145b92915050565b60008281526020819052604090206001015461034c81610fc0565b6103568383610fcd565b50505050565b6103986040518060c00160405280606081526020016060815260200160008152602001600060ff16815260200160008152602001600081525090565b6103b060008051602061183083398151915233610b3b565b6103cd57604051639234d00960e01b815260040160405180910390fd5b6001600160a01b03821660009081526003602052604090819020815160c081019092528054829082906103ff906114fd565b80601f016020809104026020016040519081016040528092919081815260200182805461042b906114fd565b80156104785780601f1061044d57610100808354040283529160200191610478565b820191906000526020600020905b81548152906001019060200180831161045b57829003601f168201915b50505050508152602001600182018054610491906114fd565b80601f01602080910402602001604051908101604052809291908181526020018280546104bd906114fd565b801561050a5780601f106104df5761010080835404028352916020019161050a565b820191906000526020600020905b8154815290600101906020018083116104ed57829003601f168201915b505050918352505060028201546020820152600382015460ff1660408201526004820154606082015260059091015460809091015290505b919050565b6001600160a01b03811633146105705760405163334bd91960e11b815260040160405180910390fd5b61057a828261105f565b505050565b600061059960008051602061185083398151915233610b3b565b1580156105bb57506105b960008051602061181083398151915233610b3b565b155b156105d957604051637a3c292760e01b815260040160405180910390fd5b60015460405163fb37aa2360e01b81526001600160a01b0384811660048301529091169063fb37aa2390602401602060405180830381865afa158015610623573d6000803e3d6000fd5b505050506040513d601f19601f820116820180604052508101906106479190611537565b610664576040516318f7067f60e31b815260040160405180910390fd5b600154604051631e009f1160e11b81526001600160a01b03848116600483015290911690633c013e2290602401602060405180830381865afa1580156106ae573d6000803e3d6000fd5b505050506040513d601f19601f8201168201806040525081019061032b9190611559565b6106fd6040518060800160405280606081526020016060815260200160008152602001606081525090565b61071560008051602061185083398151915233610b3b565b158015610737575061073560008051602061181083398151915233610b3b565b155b1561075557604051637a3c292760e01b815260040160405180910390fd5b6001546040516344ad6dd960e01b8152600481018490526001600160a01b03909116906344ad6dd990602401602060405180830381865afa15801561079e573d6000803e3d6000fd5b505050506040513d601f19601f820116820180604052508101906107c29190611537565b6107df576040516318f7067f60e31b815260040160405180910390fd5b600154604051630ffb387960e21b8152600481018490526001600160a01b0390911690633fece1e4906024015b600060405180830381865afa158015610829573d6000803e3d6000fd5b505050506040513d6000823e601f3d908101601f1916820160405261032b91908101906115bf565b61087c6040518060800160405280606081526020016060815260200160008152602001606081525090565b61089460008051602061185083398151915233610b3b565b1580156108b657506108b460008051602061181083398151915233610b3b565b155b156108d457604051637a3c292760e01b815260040160405180910390fd5b60015460405163fb37aa2360e01b81526001600160a01b0384811660048301529091169063fb37aa2390602401602060405180830381865afa15801561091e573d6000803e3d6000fd5b505050506040513d601f19601f820116820180604052508101906109429190611537565b61095f576040516318f7067f60e31b815260040160405180910390fd5b600154604051633e30877560e11b81526001600160a01b03848116600483015290911690637c610eea9060240161080c565b6109cd6040518060c00160405280606081526020016060815260200160008152602001600060ff16815260200160008152602001600081525090565b3360009081526003602052604090819020815160c081019092528054829082906109f6906114fd565b80601f0160208091040260200160405190810160405280929190818152602001828054610a22906114fd565b8015610a6f5780601f10610a4457610100808354040283529160200191610a6f565b820191906000526020600020905b815481529060010190602001808311610a5257829003601f168201915b50505050508152602001600182018054610a88906114fd565b80601f0160208091040260200160405190810160405280929190818152602001828054610ab4906114fd565b8015610b015780601f10610ad657610100808354040283529160200191610b01565b820191906000526020600020905b815481529060010190602001808311610ae457829003601f168201915b505050918352505060028201546020820152600382015460ff16604082015260048201546060820152600590910154608090910152919050565b6000918252602082815260408084206001600160a01b0393909316845291905290205460ff1690565b6000610b7e60008051602061181083398151915233610b3b565b610b9b576040516360efdb4560e01b815260040160405180910390fd5b6001546040516342b6b44360e01b81526001600160a01b03909116906342b6b44390610bd3908990899089908990899060040161167e565b6020604051808303816000875af1158015610bf2573d6000803e3d6000fd5b505050506040513d601f19601f82011682018060405250810190610c169190611559565b9695505050505050565b610c3860008051602061183083398151915233610b3b565b610c5557604051639234d00960e01b815260040160405180910390fd5b336001600160a01b03821603610c7e5760405163daafaac760e01b815260040160405180910390fd5b6001600160a01b0381166000908152600360205260408120600201549003610cb95760405163373d96b360e21b815260040160405180910390fd5b6001600160a01b03811660009081526003602052604090206005015415610cf357604051630977336160e41b815260040160405180910390fd5b6001600160a01b0381166000908152600360208190526040909120015460ff16600103610d3857610d326000805160206118308339815191528261105f565b50610db8565b6001600160a01b0381166000908152600360208190526040909120015460ff16600203610d7757610d326000805160206118108339815191528261105f565b6001600160a01b038116600090815260036020819052604090912081015460ff169003610db857610db66000805160206118508339815191528261105f565b505b6001600160a01b0316600090815260036020526040902042600590910155565b600082815260208190526040902060010154610df381610fc0565b610356838361105f565b6000610e1760008051602061181083398151915233610b3b565b610e34576040516360efdb4560e01b815260040160405180910390fd5b6001600160a01b03851660009081526003602052604090206002015415610e6e57604051632a57285960e11b815260040160405180910390fd5b8160ff16600103610e9757610e9160008051602061183083398151915286610fcd565b50610ef6565b8160ff16600203610eba57610e9160008051602061181083398151915286610fcd565b8160ff16600303610edd57610e9160008051602061185083398151915286610fcd565b604051630793d42d60e11b815260040160405180910390fd5b60028054906000610f06836116da565b90915550506040805160c08101825285815260208082018690526002548284015260ff85166060830152426080830152600060a083018190526001600160a01b038916815260039091529190912081518190610f62908261174f565b5060208201516001820190610f77908261174f565b506040820151600282810191909155606083015160038301805460ff191660ff9092169190911790556080830151600483015560a0909201516005909101555495945050505050565b610fca81336110ca565b50565b6000610fd98383610b3b565b611057576000838152602081815260408083206001600160a01b03861684529091529020805460ff1916600117905561100f3390565b6001600160a01b0316826001600160a01b0316847f2f8788117e7eff1d82e926ec794901d17c78024a50270940304540a733656f0d60405160405180910390a450600161032b565b50600061032b565b600061106b8383610b3b565b15611057576000838152602081815260408083206001600160a01b0386168085529252808320805460ff1916905551339286917ff6391f5c32d9c69d2a47ea670b442974b53935d1edc7fd64eb21e047a839171b9190a450600161032b565b6110d48282610b3b565b6111075760405163e2517d3f60e01b81526001600160a01b03821660048201526024810183905260440160405180910390fd5b5050565b60006020828403121561111d57600080fd5b81356001600160e01b03198116811461113557600080fd5b9392505050565b60006020828403121561114e57600080fd5b5035919050565b80356001600160a01b038116811461054257600080fd5b6000806040838503121561117f57600080fd5b8235915061118f60208401611155565b90509250929050565b6000602082840312156111aa57600080fd5b61113582611155565b60005b838110156111ce5781810151838201526020016111b6565b50506000910152565b600081518084526111ef8160208601602086016111b3565b601f01601f19169290920160200192915050565b602081526000825160c0602084015261121f60e08401826111d7565b90506020840151601f1984830301604085015261123c82826111d7565b9150506040840151606084015260ff6060850151166080840152608084015160a084015260a084015160c08401528091505092915050565b60208152600082516080602084015261129060a08401826111d7565b90506020840151601f19808584030160408601526112ae83836111d7565b9250604086015160608601526060860151915080858403016080860152506112d682826111d7565b95945050505050565b634e487b7160e01b600052604160045260246000fd5b6040516080810167ffffffffffffffff81118282101715611318576113186112df565b60405290565b604051601f8201601f1916810167ffffffffffffffff81118282101715611347576113476112df565b604052919050565b600067ffffffffffffffff821115611369576113696112df565b50601f01601f191660200190565b600082601f83011261138857600080fd5b813561139b6113968261134f565b61131e565b8181528460208386010111156113b057600080fd5b816020850160208301376000918101602001919091529392505050565b600080600080600060a086880312156113e557600080fd5b6113ee86611155565b9450602086013567ffffffffffffffff8082111561140b57600080fd5b61141789838a01611377565b9550604088013591508082111561142d57600080fd5b61143989838a01611377565b945060608801359350608088013591508082111561145657600080fd5b5061146388828901611377565b9150509295509295909350565b6000806000806080858703121561148657600080fd5b61148f85611155565b9350602085013567ffffffffffffffff808211156114ac57600080fd5b6114b888838901611377565b945060408701359150808211156114ce57600080fd5b506114db87828801611377565b925050606085013560ff811681146114f257600080fd5b939692955090935050565b600181811c9082168061151157607f821691505b60208210810361153157634e487b7160e01b600052602260045260246000fd5b50919050565b60006020828403121561154957600080fd5b8151801515811461113557600080fd5b60006020828403121561156b57600080fd5b5051919050565b600082601f83011261158357600080fd5b81516115916113968261134f565b8181528460208386010111156115a657600080fd5b6115b78260208301602087016111b3565b949350505050565b6000602082840312156115d157600080fd5b815167ffffffffffffffff808211156115e957600080fd5b90830190608082860312156115fd57600080fd5b6116056112f5565b82518281111561161457600080fd5b61162087828601611572565b82525060208301518281111561163557600080fd5b61164187828601611572565b6020830152506040830151604082015260608301518281111561166357600080fd5b61166f87828601611572565b60608301525095945050505050565b6001600160a01b038616815260a0602082018190526000906116a2908301876111d7565b82810360408401526116b481876111d7565b905084606084015282810360808401526116ce81856111d7565b98975050505050505050565b6000600182016116fa57634e487b7160e01b600052601160045260246000fd5b5060010190565b601f82111561057a57600081815260208120601f850160051c810160208610156117285750805b601f850160051c820191505b8181101561174757828155600101611734565b505050505050565b815167ffffffffffffffff811115611769576117696112df565b61177d8161177784546114fd565b84611701565b602080601f8311600181146117b2576000841561179a5750858301515b600019600386901b1c1916600185901b178555611747565b600085815260208120601f198616915b828110156117e1578886015182559484019460019091019084016117c2565b50858210156117ff5787850151600019600388901b60f8161c191681555b5050505050600190811b0190555056fecdf2c8daa63f871d20b4a89066e1175f12d20809bd2401b0d2c48935db3e2489a49807205ce4d355092ef5a8a18f56e8913cf4a201fbe287825b095693c217750887836c361e0de2a79d8a48fadf77d36bb5eae40c059217fa115a39425b0c35a2646970667358221220bb3d9745538c26207f91822a4409ddef4fe6923c2ea467cc168f70e967bc8c5164736f6c63430008140033",
    "linkReferences": {}
  },
  "methodIdentifiers": {
    "ADMIN_ROLE()": "75b238fc",
    "DEFAULT_ADMIN_ROLE()": "a217fddf",
    "DataAddress()": "f0a7c5f9",
    "GENERAL_EMPLOYEE_ROLE()": "dfbeeeb7",
    "MANAGER_EMPLOYEE_ROLE()": "8b89cb3b",
    "generateId(address,string,string,uint256,string)": "b527be8b",
    "getEmployee(address)": "32648e09",
    "getIDMetadataByAddress(address)": "7c610eea",
    "getIDMetadataByNumberID(uint256)": "3fece1e4",
    "getIDNumberByAddress(address)": "3c013e22",
    "getMyInfo()": "7daa10ce",
    "getRoleAdmin(bytes32)": "248a9ca3",
    "grantRole(bytes32,address)": "2f2ff15d",
    "hasRole(bytes32,address)": "91d14854",
    "newEmployee(address,string,string,uint8)": "f4b9085e",
    "numberEmployee()": "92401a0d",
    "removeEmployee(address)": "d108177a",
    "renounceRole(bytes32,address)": "36568abe",
    "revokeRole(bytes32,address)": "d547741f",
    "supportsInterface(bytes4)": "01ffc9a7"
  },
  "id": 21
}