{
  "abi": [
    {
      "inputs": [
        {
          "internalType": "address",
          "name": "_DataAddress",
          "type": "address"
        },
        {
          "internalType": "address",
          "name": "_adminAddress",
          "type": "address"
        },
        {
          "internalType": "string",
          "name": "_firstNameAdmin",
          "type": "string"
        },
        {
          "internalType": "string",
          "name": "_lastNameAdmin",
          "type": "string"
        }
      ],
      "stateMutability": "nonpayable",
      "type": "constructor"
    },
    {
      "inputs": [],
      "name": "AccessControlBadConfirmation",
      "type": "error"
    },
    {
      "inputs": [
        {
          "internalType": "address",
          "name": "account",
          "type": "address"
        },
        {
          "internalType": "bytes32",
          "name": "neededRole",
          "type": "bytes32"
        }
      ],
      "name": "AccessControlUnauthorizedAccount",
      "type": "error"
    },
    {
      "inputs": [],
      "name": "Service__AddressDoesntHaveIDAssigned",
      "type": "error"
    },
    {
      "inputs": [],
      "name": "Service__CantRemoveYourself",
      "type": "error"
    },
    {
      "inputs": [],
      "name": "Service__EmployeeAlreadyEgress",
      "type": "error"
    },
    {
      "inputs": [],
      "name": "Service__EmployeeExist",
      "type": "error"
    },
    {
      "inputs": [],
      "name": "Service__EmployeeIsStillActive",
      "type": "error"
    },
    {
      "inputs": [],
      "name": "Service__EmployeeNotExist",
      "type": "error"
    },
    {
      "inputs": [],
      "name": "Service__IDDontExist",
      "type": "error"
    },
    {
      "inputs": [],
      "name": "Service__OnlyAdmin",
      "type": "error"
    },
    {
      "inputs": [],
      "name": "Service__OnlyGeneralEmployee",
      "type": "error"
    },
    {
      "inputs": [],
      "name": "Service__OnlyManagerEmployee",
      "type": "error"
    },
    {
      "inputs": [],
      "name": "Service__RoleNotValid",
      "type": "error"
    },
    {
      "anonymous": false,
      "inputs": [
        {
          "indexed": true,
          "internalType": "bytes32",
          "name": "role",
          "type": "bytes32"
        },
        {
          "indexed": true,
          "internalType": "bytes32",
          "name": "previousAdminRole",
          "type": "bytes32"
        },
        {
          "indexed": true,
          "internalType": "bytes32",
          "name": "newAdminRole",
          "type": "bytes32"
        }
      ],
      "name": "RoleAdminChanged",
      "type": "event"
    },
    {
      "anonymous": false,
      "inputs": [
        {
          "indexed": true,
          "internalType": "bytes32",
          "name": "role",
          "type": "bytes32"
        },
        {
          "indexed": true,
          "internalType": "address",
          "name": "account",
          "type": "address"
        },
        {
          "indexed": true,
          "internalType": "address",
          "name": "sender",
          "type": "address"
        }
      ],
      "name": "RoleGranted",
      "type": "event"
    },
    {
      "anonymous": false,
      "inputs": [
        {
          "indexed": true,
          "internalType": "bytes32",
          "name": "role",
          "type": "bytes32"
        },
        {
          "indexed": true,
          "internalType": "address",
          "name": "account",
          "type": "address"
        },
        {
          "indexed": true,
          "internalType": "address",
          "name": "sender",
          "type": "address"
        }
      ],
      "name": "RoleRevoked",
      "type": "event"
    },
    {
      "inputs": [],
      "name": "ADMIN_ROLE",
      "outputs": [
        {
          "internalType": "bytes32",
          "name": "",
          "type": "bytes32"
        }
      ],
      "stateMutability": "view",
      "type": "function"
    },
    {
      "inputs": [],
      "name": "DEFAULT_ADMIN_ROLE",
      "outputs": [
        {
          "internalType": "bytes32",
          "name": "",
          "type": "bytes32"
        }
      ],
      "stateMutability": "view",
      "type": "function"
    },
    {
      "inputs": [],
      "name": "DataAddress",
      "outputs": [
        {
          "internalType": "address",
          "name": "",
          "type": "address"
        }
      ],
      "stateMutability": "view",
      "type": "function"
    },
    {
      "inputs": [],
      "name": "GENERAL_EMPLOYEE_ROLE",
      "outputs": [
        {
          "internalType": "bytes32",
          "name": "",
          "type": "bytes32"
        }
      ],
      "stateMutability": "view",
      "type": "function"
    },
    {
      "inputs": [],
      "name": "MANAGER_EMPLOYEE_ROLE",
      "outputs": [
        {
          "internalType": "bytes32",
          "name": "",
          "type": "bytes32"
        }
      ],
      "stateMutability": "view",
      "type": "function"
    },
    {
      "inputs": [
        {
          "internalType": "address",
          "name": "_userAddress",
          "type": "address"
        },
        {
          "internalType": "string",
          "name": "_firstName",
          "type": "string"
        },
        {
          "internalType": "string",
          "name": "_lastName",
          "type": "string"
        },
        {
          "internalType": "uint256",
          "name": "_birthDate",
          "type": "uint256"
        },
        {
          "internalType": "string",
          "name": "_birthPlace",
          "type": "string"
        }
      ],
      "name": "generateId",
      "outputs": [
        {
          "internalType": "uint256",
          "name": "",
          "type": "uint256"
        }
      ],
      "stateMutability": "nonpayable",
      "type": "function"
    },
    {
      "inputs": [
        {
          "internalType": "address",
          "name": "_employeeAddress",
          "type": "address"
        }
      ],
      "name": "getEmployee",
      "outputs": [
        {
          "components": [
            {
              "internalType": "string",
              "name": "firstName",
              "type": "string"
            },
            {
              "internalType": "string",
              "name": "lastName",
              "type": "string"
            },
            {
              "internalType": "uint256",
              "name": "idEmployee",
              "type": "uint256"
            },
            {
              "internalType": "uint8",
              "name": "role",
              "type": "uint8"
            },
            {
              "internalType": "uint256",
              "name": "ingressDate",
              "type": "uint256"
            },
            {
              "internalType": "uint256",
              "name": "egressDate",
              "type": "uint256"
            }
          ],
          "internalType": "struct Service.EmployeeMetadata",
          "name": "",
          "type": "tuple"
        }
      ],
      "stateMutability": "view",
      "type": "function"
    },
    {
      "inputs": [
        {
          "internalType": "address",
          "name": "_userAddress",
          "type": "address"
        }
      ],
      "name": "getIDMetadataByAddress",
      "outputs": [
        {
          "components": [
            {
              "internalType": "string",
              "name": "firstName",
              "type": "string"
            },
            {
              "internalType": "string",
              "name": "lastName",
              "type": "string"
            },
            {
              "internalType": "uint256",
              "name": "birthDate",
              "type": "uint256"
            },
            {
              "internalType": "string",
              "name": "birthPlace",
              "type": "string"
            }
          ],
          "internalType": "struct Data.idMetadata",
          "name": "",
          "type": "tuple"
        }
      ],
      "stateMutability": "view",
      "type": "function"
    },
    {
      "inputs": [
        {
          "internalType": "uint256",
          "name": "_numberID",
          "type": "uint256"
        }
      ],
      "name": "getIDMetadataByNumberID",
      "outputs": [
        {
          "components": [
            {
              "internalType": "string",
              "name": "firstName",
              "type": "string"
            },
            {
              "internalType": "string",
              "name": "lastName",
              "type": "string"
            },
            {
              "internalType": "uint256",
              "name": "birthDate",
              "type": "uint256"
            },
            {
              "internalType": "string",
              "name": "birthPlace",
              "type": "string"
            }
          ],
          "internalType": "struct Data.idMetadata",
          "name": "",
          "type": "tuple"
        }
      ],
      "stateMutability": "view",
      "type": "function"
    },
    {
      "inputs": [
        {
          "internalType": "address",
          "name": "_userAddress",
          "type": "address"
        }
      ],
      "name": "getIDNumberByAddress",
      "outputs": [
        {
          "internalType": "uint256",
          "name": "",
          "type": "uint256"
        }
      ],
      "stateMutability": "view",
      "type": "function"
    },
    {
      "inputs": [],
      "name": "getMyInfo",
      "outputs": [
        {
          "components": [
            {
              "internalType": "string",
              "name": "firstName",
              "type": "string"
            },
            {
              "internalType": "string",
              "name": "lastName",
              "type": "string"
            },
            {
              "internalType": "uint256",
              "name": "idEmployee",
              "type": "uint256"
            },
            {
              "internalType": "uint8",
              "name": "role",
              "type": "uint8"
            },
            {
              "internalType": "uint256",
              "name": "ingressDate",
              "type": "uint256"
            },
            {
              "internalType": "uint256",
              "name": "egressDate",
              "type": "uint256"
            }
          ],
          "internalType": "struct Service.EmployeeMetadata",
          "name": "",
          "type": "tuple"
        }
      ],
      "stateMutability": "view",
      "type": "function"
    },
    {
      "inputs": [
        {
          "internalType": "bytes32",
          "name": "role",
          "type": "bytes32"
        }
      ],
      "name": "getRoleAdmin",
      "outputs": [
        {
          "internalType": "bytes32",
          "name": "",
          "type": "bytes32"
        }
      ],
      "stateMutability": "view",
      "type": "function"
    },
    {
      "inputs": [
        {
          "internalType": "bytes32",
          "name": "role",
          "type": "bytes32"
        },
        {
          "internalType": "address",
          "name": "account",
          "type": "address"
        }
      ],
      "name": "grantRole",
      "outputs": [],
      "stateMutability": "nonpayable",
      "type": "function"
    },
    {
      "inputs": [
        {
          "internalType": "bytes32",
          "name": "role",
          "type": "bytes32"
        },
        {
          "internalType": "address",
          "name": "account",
          "type": "address"
        }
      ],
      "name": "hasRole",
      "outputs": [
        {
          "internalType": "bool",
          "name": "",
          "type": "bool"
        }
      ],
      "stateMutability": "view",
      "type": "function"
    },
    {
      "inputs": [
        {
          "internalType": "address",
          "name": "_employeeAddress",
          "type": "address"
        },
        {
          "internalType": "string",
          "name": "_firstName",
          "type": "string"
        },
        {
          "internalType": "string",
          "name": "_lastName",
          "type": "string"
        },
        {
          "internalType": "uint8",
          "name": "_role",
          "type": "uint8"
        }
      ],
      "name": "newEmployee",
      "outputs": [
        {
          "internalType": "uint256",
          "name": "",
          "type": "uint256"
        }
      ],
      "stateMutability": "nonpayable",
      "type": "function"
    },
    {
      "inputs": [],
      "name": "numberEmployee",
      "outputs": [
        {
          "internalType": "uint256",
          "name": "",
          "type": "uint256"
        }
      ],
      "stateMutability": "view",
      "type": "function"
    },
    {
      "inputs": [
        {
          "internalType": "address",
          "name": "_employeeAddress",
          "type": "address"
        }
      ],
      "name": "reinstateEmployee",
      "outputs": [],
      "stateMutability": "nonpayable",
      "type": "function"
    },
    {
      "inputs": [
        {
          "internalType": "address",
          "name": "_employeeAddress",
          "type": "address"
        }
      ],
      "name": "removeEmployee",
      "outputs": [],
      "stateMutability": "nonpayable",
      "type": "function"
    },
    {
      "inputs": [
        {
          "internalType": "bytes32",
          "name": "role",
          "type": "bytes32"
        },
        {
          "internalType": "address",
          "name": "callerConfirmation",
          "type": "address"
        }
      ],
      "name": "renounceRole",
      "outputs": [],
      "stateMutability": "nonpayable",
      "type": "function"
    },
    {
      "inputs": [
        {
          "internalType": "bytes32",
          "name": "role",
          "type": "bytes32"
        },
        {
          "internalType": "address",
          "name": "account",
          "type": "address"
        }
      ],
      "name": "revokeRole",
      "outputs": [],
      "stateMutability": "nonpayable",
      "type": "function"
    },
    {
      "inputs": [
        {
          "internalType": "bytes4",
          "name": "interfaceId",
          "type": "bytes4"
        }
      ],
      "name": "supportsInterface",
      "outputs": [
        {
          "internalType": "bool",
          "name": "",
          "type": "bool"
        }
      ],
      "stateMutability": "view",
      "type": "function"
    }
  ],
  "bytecode": {
    "object": "0x60806040523480156200001157600080fd5b5060405162001f5638038062001f568339810160408190526200003491620002d8565b600180546001600160a01b0319166001600160a01b0386161790556200007b7fa49807205ce4d355092ef5a8a18f56e8913cf4a201fbe287825b095693c217758462000147565b50600280549060006200008e8362000368565b90915550506040805160c08101825283815260208082018490526002548284015260016060830152426080830152600060a083018190526001600160a01b038716815260039091529190912081518190620000ea90826200041f565b50602082015160018201906200010190826200041f565b5060408201516002820155606082015160038201805460ff191660ff9092169190911790556080820151600482015560a09091015160059091015550620004eb92505050565b6000828152602081815260408083206001600160a01b038516845290915281205460ff16620001ec576000838152602081815260408083206001600160a01b03861684529091529020805460ff19166001179055620001a33390565b6001600160a01b0316826001600160a01b0316847f2f8788117e7eff1d82e926ec794901d17c78024a50270940304540a733656f0d60405160405180910390a4506001620001f0565b5060005b92915050565b80516001600160a01b03811681146200020e57600080fd5b919050565b634e487b7160e01b600052604160045260246000fd5b600082601f8301126200023b57600080fd5b81516001600160401b038082111562000258576200025862000213565b604051601f8301601f19908116603f0116810190828211818310171562000283576200028362000213565b81604052838152602092508683858801011115620002a057600080fd5b600091505b83821015620002c45785820183015181830184015290820190620002a5565b600093810190920192909252949350505050565b60008060008060808587031215620002ef57600080fd5b620002fa85620001f6565b93506200030a60208601620001f6565b60408601519093506001600160401b03808211156200032857600080fd5b620003368883890162000229565b935060608701519150808211156200034d57600080fd5b506200035c8782880162000229565b91505092959194509250565b6000600182016200038957634e487b7160e01b600052601160045260246000fd5b5060010190565b600181811c90821680620003a557607f821691505b602082108103620003c657634e487b7160e01b600052602260045260246000fd5b50919050565b601f8211156200041a57600081815260208120601f850160051c81016020861015620003f55750805b601f850160051c820191505b81811015620004165782815560010162000401565b5050505b505050565b81516001600160401b038111156200043b576200043b62000213565b62000453816200044c845462000390565b84620003cc565b602080601f8311600181146200048b5760008415620004725750858301515b600019600386901b1c1916600185901b17855562000416565b600085815260208120601f198616915b82811015620004bc578886015182559484019460019091019084016200049b565b5085821015620004db5787850151600019600388901b60f8161c191681555b5050505050600190811b01905550565b611a5b80620004fb6000396000f3fe608060405234801561001057600080fd5b50600436106101375760003560e01c80638b89cb3b116100b8578063b527be8b1161007c578063b527be8b1461028c578063d108177a1461029f578063d547741f146102b2578063dfbeeeb7146102c5578063f0a7c5f9146102da578063f4b9085e1461030557600080fd5b80638b89cb3b1461024057806391d148541461025557806392401a0d146102685780639782148014610271578063a217fddf1461028457600080fd5b80633c013e22116100ff5780633c013e22146101dd5780633fece1e4146101f057806375b238fc146102105780637c610eea146102255780637daa10ce1461023857600080fd5b806301ffc9a71461013c578063248a9ca3146101645780632f2ff15d1461019557806332648e09146101aa57806336568abe146101ca575b600080fd5b61014f61014a3660046112c1565b610318565b60405190151581526020015b60405180910390f35b6101876101723660046112f2565b60009081526020819052604090206001015490565b60405190815260200161015b565b6101a86101a3366004611322565b61034f565b005b6101bd6101b836600461134e565b61037a565b60405161015b91906113b9565b6101a86101d8366004611322565b610565565b6101876101eb36600461134e565b61059d565b6102036101fe3660046112f2565b6106f0565b60405161015b919061142a565b6101876000805160206119e683398151915281565b61020361023336600461134e565b61086f565b6101bd6109af565b6101876000805160206119c683398151915281565b61014f610263366004611322565b610b59565b61018760025481565b6101a861027f36600461134e565b610b82565b610187600081565b61018761029a366004611583565b610d1a565b6101a86102ad36600461134e565b610dd6565b6101a86102c0366004611322565b610f8e565b610187600080516020611a0683398151915281565b6001546102ed906001600160a01b031681565b6040516001600160a01b03909116815260200161015b565b610187610313366004611626565b610fb3565b60006001600160e01b03198216637965db0b60e01b148061034957506301ffc9a760e01b6001600160e01b03198316145b92915050565b60008281526020819052604090206001015461036a81611176565b6103748383611183565b50505050565b6103b66040518060c00160405280606081526020016060815260200160008152602001600060ff16815260200160008152602001600081525090565b6103ce6000805160206119e683398151915233610b59565b6103eb57604051639234d00960e01b815260040160405180910390fd5b6001600160a01b03821660009081526003602052604090819020815160c0810190925280548290829061041d906116b3565b80601f0160208091040260200160405190810160405280929190818152602001828054610449906116b3565b80156104965780601f1061046b57610100808354040283529160200191610496565b820191906000526020600020905b81548152906001019060200180831161047957829003601f168201915b505050505081526020016001820180546104af906116b3565b80601f01602080910402602001604051908101604052809291908181526020018280546104db906116b3565b80156105285780601f106104fd57610100808354040283529160200191610528565b820191906000526020600020905b81548152906001019060200180831161050b57829003601f168201915b505050918352505060028201546020820152600382015460ff1660408201526004820154606082015260059091015460809091015290505b919050565b6001600160a01b038116331461058e5760405163334bd91960e11b815260040160405180910390fd5b6105988282611215565b505050565b60006105b7600080516020611a0683398151915233610b59565b1580156105d957506105d76000805160206119c683398151915233610b59565b155b156105f757604051637a3c292760e01b815260040160405180910390fd5b60015460405163fb37aa2360e01b81526001600160a01b0384811660048301529091169063fb37aa2390602401602060405180830381865afa158015610641573d6000803e3d6000fd5b505050506040513d601f19601f8201168201806040525081019061066591906116ed565b610682576040516318f7067f60e31b815260040160405180910390fd5b600154604051631e009f1160e11b81526001600160a01b03848116600483015290911690633c013e2290602401602060405180830381865afa1580156106cc573d6000803e3d6000fd5b505050506040513d601f19601f82011682018060405250810190610349919061170f565b61071b6040518060800160405280606081526020016060815260200160008152602001606081525090565b610733600080516020611a0683398151915233610b59565b15801561075557506107536000805160206119c683398151915233610b59565b155b1561077357604051637a3c292760e01b815260040160405180910390fd5b6001546040516344ad6dd960e01b8152600481018490526001600160a01b03909116906344ad6dd990602401602060405180830381865afa1580156107bc573d6000803e3d6000fd5b505050506040513d601f19601f820116820180604052508101906107e091906116ed565b6107fd576040516318f7067f60e31b815260040160405180910390fd5b600154604051630ffb387960e21b8152600481018490526001600160a01b0390911690633fece1e4906024015b600060405180830381865afa158015610847573d6000803e3d6000fd5b505050506040513d6000823e601f3d908101601f191682016040526103499190810190611775565b61089a6040518060800160405280606081526020016060815260200160008152602001606081525090565b6108b2600080516020611a0683398151915233610b59565b1580156108d457506108d26000805160206119c683398151915233610b59565b155b156108f257604051637a3c292760e01b815260040160405180910390fd5b60015460405163fb37aa2360e01b81526001600160a01b0384811660048301529091169063fb37aa2390602401602060405180830381865afa15801561093c573d6000803e3d6000fd5b505050506040513d601f19601f8201168201806040525081019061096091906116ed565b61097d576040516318f7067f60e31b815260040160405180910390fd5b600154604051633e30877560e11b81526001600160a01b03848116600483015290911690637c610eea9060240161082a565b6109eb6040518060c00160405280606081526020016060815260200160008152602001600060ff16815260200160008152602001600081525090565b3360009081526003602052604090819020815160c08101909252805482908290610a14906116b3565b80601f0160208091040260200160405190810160405280929190818152602001828054610a40906116b3565b8015610a8d5780601f10610a6257610100808354040283529160200191610a8d565b820191906000526020600020905b815481529060010190602001808311610a7057829003601f168201915b50505050508152602001600182018054610aa6906116b3565b80601f0160208091040260200160405190810160405280929190818152602001828054610ad2906116b3565b8015610b1f5780601f10610af457610100808354040283529160200191610b1f565b820191906000526020600020905b815481529060010190602001808311610b0257829003601f168201915b505050918352505060028201546020820152600382015460ff16604082015260048201546060820152600590910154608090910152919050565b6000918252602082815260408084206001600160a01b0393909316845291905290205460ff1690565b610b9a6000805160206119e683398151915233610b59565b610bb757604051639234d00960e01b815260040160405180910390fd5b6001600160a01b0381166000908152600360205260408120600201549003610bf25760405163373d96b360e21b815260040160405180910390fd5b6001600160a01b0381166000908152600360205260408120600501549003610c2d576040516349b5f13560e11b815260040160405180910390fd5b6001600160a01b0381166000908152600360208190526040909120015460ff16600103610c7257610c6c6000805160206119e683398151915282611183565b50610cf2565b6001600160a01b0381166000908152600360208190526040909120015460ff16600203610cb157610c6c6000805160206119c683398151915282611183565b6001600160a01b038116600090815260036020819052604090912081015460ff169003610cf257610cf0600080516020611a0683398151915282611183565b505b6001600160a01b03166000908152600360205260408120600581019190915542600490910155565b6000610d346000805160206119c683398151915233610b59565b610d51576040516360efdb4560e01b815260040160405180910390fd5b6001546040516342b6b44360e01b81526001600160a01b03909116906342b6b44390610d899089908990899089908990600401611834565b6020604051808303816000875af1158015610da8573d6000803e3d6000fd5b505050506040513d601f19601f82011682018060405250810190610dcc919061170f565b9695505050505050565b610dee6000805160206119e683398151915233610b59565b610e0b57604051639234d00960e01b815260040160405180910390fd5b336001600160a01b03821603610e345760405163daafaac760e01b815260040160405180910390fd5b6001600160a01b0381166000908152600360205260408120600201549003610e6f5760405163373d96b360e21b815260040160405180910390fd5b6001600160a01b03811660009081526003602052604090206005015415610ea957604051630977336160e41b815260040160405180910390fd5b6001600160a01b0381166000908152600360208190526040909120015460ff16600103610eee57610ee86000805160206119e683398151915282611215565b50610f6e565b6001600160a01b0381166000908152600360208190526040909120015460ff16600203610f2d57610ee86000805160206119c683398151915282611215565b6001600160a01b038116600090815260036020819052604090912081015460ff169003610f6e57610f6c600080516020611a0683398151915282611215565b505b6001600160a01b0316600090815260036020526040902042600590910155565b600082815260208190526040902060010154610fa981611176565b6103748383611215565b6000610fcd6000805160206119c683398151915233610b59565b610fea576040516360efdb4560e01b815260040160405180910390fd5b6001600160a01b0385166000908152600360205260409020600201541561102457604051632a57285960e11b815260040160405180910390fd5b8160ff1660010361104d576110476000805160206119e683398151915286611183565b506110ac565b8160ff16600203611070576110476000805160206119c683398151915286611183565b8160ff1660030361109357611047600080516020611a0683398151915286611183565b604051630793d42d60e11b815260040160405180910390fd5b600280549060006110bc83611890565b90915550506040805160c08101825285815260208082018690526002548284015260ff85166060830152426080830152600060a083018190526001600160a01b0389168152600390915291909120815181906111189082611905565b506020820151600182019061112d9082611905565b506040820151600282810191909155606083015160038301805460ff191660ff9092169190911790556080830151600483015560a0909201516005909101555495945050505050565b6111808133611280565b50565b600061118f8383610b59565b61120d576000838152602081815260408083206001600160a01b03861684529091529020805460ff191660011790556111c53390565b6001600160a01b0316826001600160a01b0316847f2f8788117e7eff1d82e926ec794901d17c78024a50270940304540a733656f0d60405160405180910390a4506001610349565b506000610349565b60006112218383610b59565b1561120d576000838152602081815260408083206001600160a01b0386168085529252808320805460ff1916905551339286917ff6391f5c32d9c69d2a47ea670b442974b53935d1edc7fd64eb21e047a839171b9190a4506001610349565b61128a8282610b59565b6112bd5760405163e2517d3f60e01b81526001600160a01b03821660048201526024810183905260440160405180910390fd5b5050565b6000602082840312156112d357600080fd5b81356001600160e01b0319811681146112eb57600080fd5b9392505050565b60006020828403121561130457600080fd5b5035919050565b80356001600160a01b038116811461056057600080fd5b6000806040838503121561133557600080fd5b823591506113456020840161130b565b90509250929050565b60006020828403121561136057600080fd5b6112eb8261130b565b60005b8381101561138457818101518382015260200161136c565b50506000910152565b600081518084526113a5816020860160208601611369565b601f01601f19169290920160200192915050565b602081526000825160c060208401526113d560e084018261138d565b90506020840151601f198483030160408501526113f2828261138d565b9150506040840151606084015260ff6060850151166080840152608084015160a084015260a084015160c08401528091505092915050565b60208152600082516080602084015261144660a084018261138d565b90506020840151601f1980858403016040860152611464838361138d565b92506040860151606086015260608601519150808584030160808601525061148c828261138d565b95945050505050565b634e487b7160e01b600052604160045260246000fd5b6040516080810167ffffffffffffffff811182821017156114ce576114ce611495565b60405290565b604051601f8201601f1916810167ffffffffffffffff811182821017156114fd576114fd611495565b604052919050565b600067ffffffffffffffff82111561151f5761151f611495565b50601f01601f191660200190565b600082601f83011261153e57600080fd5b813561155161154c82611505565b6114d4565b81815284602083860101111561156657600080fd5b816020850160208301376000918101602001919091529392505050565b600080600080600060a0868803121561159b57600080fd5b6115a48661130b565b9450602086013567ffffffffffffffff808211156115c157600080fd5b6115cd89838a0161152d565b955060408801359150808211156115e357600080fd5b6115ef89838a0161152d565b945060608801359350608088013591508082111561160c57600080fd5b506116198882890161152d565b9150509295509295909350565b6000806000806080858703121561163c57600080fd5b6116458561130b565b9350602085013567ffffffffffffffff8082111561166257600080fd5b61166e8883890161152d565b9450604087013591508082111561168457600080fd5b506116918782880161152d565b925050606085013560ff811681146116a857600080fd5b939692955090935050565b600181811c908216806116c757607f821691505b6020821081036116e757634e487b7160e01b600052602260045260246000fd5b50919050565b6000602082840312156116ff57600080fd5b815180151581146112eb57600080fd5b60006020828403121561172157600080fd5b5051919050565b600082601f83011261173957600080fd5b815161174761154c82611505565b81815284602083860101111561175c57600080fd5b61176d826020830160208701611369565b949350505050565b60006020828403121561178757600080fd5b815167ffffffffffffffff8082111561179f57600080fd5b90830190608082860312156117b357600080fd5b6117bb6114ab565b8251828111156117ca57600080fd5b6117d687828601611728565b8252506020830151828111156117eb57600080fd5b6117f787828601611728565b6020830152506040830151604082015260608301518281111561181957600080fd5b61182587828601611728565b60608301525095945050505050565b6001600160a01b038616815260a0602082018190526000906118589083018761138d565b828103604084015261186a818761138d565b90508460608401528281036080840152611884818561138d565b98975050505050505050565b6000600182016118b057634e487b7160e01b600052601160045260246000fd5b5060010190565b601f82111561059857600081815260208120601f850160051c810160208610156118de5750805b601f850160051c820191505b818110156118fd578281556001016118ea565b505050505050565b815167ffffffffffffffff81111561191f5761191f611495565b6119338161192d84546116b3565b846118b7565b602080601f83116001811461196857600084156119505750858301515b600019600386901b1c1916600185901b1785556118fd565b600085815260208120601f198616915b8281101561199757888601518255948401946001909101908401611978565b50858210156119b55787850151600019600388901b60f8161c191681555b5050505050600190811b0190555056fecdf2c8daa63f871d20b4a89066e1175f12d20809bd2401b0d2c48935db3e2489a49807205ce4d355092ef5a8a18f56e8913cf4a201fbe287825b095693c217750887836c361e0de2a79d8a48fadf77d36bb5eae40c059217fa115a39425b0c35a26469706673582212204a762affd6ac6309bd97f45ca87b2a3f82873888729bc89ba30582951d03c88564736f6c63430008140033",
    "linkReferences": {}
  },
  "methodIdentifiers": {
    "ADMIN_ROLE()": "75b238fc",
    "DEFAULT_ADMIN_ROLE()": "a217fddf",
    "DataAddress()": "f0a7c5f9",
    "GENERAL_EMPLOYEE_ROLE()": "dfbeeeb7",
    "MANAGER_EMPLOYEE_ROLE()": "8b89cb3b",
    "generateId(address,string,string,uint256,string)": "b527be8b",
    "getEmployee(address)": "32648e09",
    "getIDMetadataByAddress(address)": "7c610eea",
    "getIDMetadataByNumberID(uint256)": "3fece1e4",
    "getIDNumberByAddress(address)": "3c013e22",
    "getMyInfo()": "7daa10ce",
    "getRoleAdmin(bytes32)": "248a9ca3",
    "grantRole(bytes32,address)": "2f2ff15d",
    "hasRole(bytes32,address)": "91d14854",
    "newEmployee(address,string,string,uint8)": "f4b9085e",
    "numberEmployee()": "92401a0d",
    "reinstateEmployee(address)": "97821480",
    "removeEmployee(address)": "d108177a",
    "renounceRole(bytes32,address)": "36568abe",
    "revokeRole(bytes32,address)": "d547741f",
    "supportsInterface(bytes4)": "01ffc9a7"
  },
  "id": 21
}