{
  "abi": [
    {
      "inputs": [
        {
          "internalType": "address",
          "name": "_DataAddress",
          "type": "address"
        },
        {
          "internalType": "address",
          "name": "_adminAddress",
          "type": "address"
        },
        {
          "internalType": "string",
          "name": "_firstNameAdmin",
          "type": "string"
        },
        {
          "internalType": "string",
          "name": "_lastNameAdmin",
          "type": "string"
        }
      ],
      "stateMutability": "nonpayable",
      "type": "constructor"
    },
    {
      "inputs": [],
      "name": "AccessControlBadConfirmation",
      "type": "error"
    },
    {
      "inputs": [
        {
          "internalType": "address",
          "name": "account",
          "type": "address"
        },
        {
          "internalType": "bytes32",
          "name": "neededRole",
          "type": "bytes32"
        }
      ],
      "name": "AccessControlUnauthorizedAccount",
      "type": "error"
    },
    {
      "inputs": [],
      "name": "Service__AddressDoesntHaveIDAssigned",
      "type": "error"
    },
    {
      "inputs": [],
      "name": "Service__CantRemoveYourself",
      "type": "error"
    },
    {
      "inputs": [],
      "name": "Service__EmployeeAlreadyEgress",
      "type": "error"
    },
    {
      "inputs": [],
      "name": "Service__EmployeeExist",
      "type": "error"
    },
    {
      "inputs": [],
      "name": "Service__EmployeeIsStillActive",
      "type": "error"
    },
    {
      "inputs": [],
      "name": "Service__EmployeeNotExist",
      "type": "error"
    },
    {
      "inputs": [],
      "name": "Service__IDDontExist",
      "type": "error"
    },
    {
      "inputs": [],
      "name": "Service__OnlyAdmin",
      "type": "error"
    },
    {
      "inputs": [],
      "name": "Service__OnlyGeneralEmployee",
      "type": "error"
    },
    {
      "inputs": [],
      "name": "Service__OnlyManagerEmployee",
      "type": "error"
    },
    {
      "inputs": [],
      "name": "Service__RoleNotValid",
      "type": "error"
    },
    {
      "anonymous": false,
      "inputs": [
        {
          "indexed": true,
          "internalType": "bytes32",
          "name": "role",
          "type": "bytes32"
        },
        {
          "indexed": true,
          "internalType": "bytes32",
          "name": "previousAdminRole",
          "type": "bytes32"
        },
        {
          "indexed": true,
          "internalType": "bytes32",
          "name": "newAdminRole",
          "type": "bytes32"
        }
      ],
      "name": "RoleAdminChanged",
      "type": "event"
    },
    {
      "anonymous": false,
      "inputs": [
        {
          "indexed": true,
          "internalType": "bytes32",
          "name": "role",
          "type": "bytes32"
        },
        {
          "indexed": true,
          "internalType": "address",
          "name": "account",
          "type": "address"
        },
        {
          "indexed": true,
          "internalType": "address",
          "name": "sender",
          "type": "address"
        }
      ],
      "name": "RoleGranted",
      "type": "event"
    },
    {
      "anonymous": false,
      "inputs": [
        {
          "indexed": true,
          "internalType": "bytes32",
          "name": "role",
          "type": "bytes32"
        },
        {
          "indexed": true,
          "internalType": "address",
          "name": "account",
          "type": "address"
        },
        {
          "indexed": true,
          "internalType": "address",
          "name": "sender",
          "type": "address"
        }
      ],
      "name": "RoleRevoked",
      "type": "event"
    },
    {
      "inputs": [],
      "name": "ADMIN_ROLE",
      "outputs": [
        {
          "internalType": "bytes32",
          "name": "",
          "type": "bytes32"
        }
      ],
      "stateMutability": "view",
      "type": "function"
    },
    {
      "inputs": [],
      "name": "DEFAULT_ADMIN_ROLE",
      "outputs": [
        {
          "internalType": "bytes32",
          "name": "",
          "type": "bytes32"
        }
      ],
      "stateMutability": "view",
      "type": "function"
    },
    {
      "inputs": [],
      "name": "DataAddress",
      "outputs": [
        {
          "internalType": "address",
          "name": "",
          "type": "address"
        }
      ],
      "stateMutability": "view",
      "type": "function"
    },
    {
      "inputs": [],
      "name": "GENERAL_EMPLOYEE_ROLE",
      "outputs": [
        {
          "internalType": "bytes32",
          "name": "",
          "type": "bytes32"
        }
      ],
      "stateMutability": "view",
      "type": "function"
    },
    {
      "inputs": [],
      "name": "MANAGER_EMPLOYEE_ROLE",
      "outputs": [
        {
          "internalType": "bytes32",
          "name": "",
          "type": "bytes32"
        }
      ],
      "stateMutability": "view",
      "type": "function"
    },
    {
      "inputs": [
        {
          "internalType": "address",
          "name": "_userAddress",
          "type": "address"
        },
        {
          "internalType": "string",
          "name": "_firstName",
          "type": "string"
        },
        {
          "internalType": "string",
          "name": "_lastName",
          "type": "string"
        },
        {
          "internalType": "uint256",
          "name": "_birthDate",
          "type": "uint256"
        },
        {
          "internalType": "string",
          "name": "_birthPlace",
          "type": "string"
        }
      ],
      "name": "generateId",
      "outputs": [
        {
          "internalType": "uint256",
          "name": "",
          "type": "uint256"
        }
      ],
      "stateMutability": "nonpayable",
      "type": "function"
    },
    {
      "inputs": [
        {
          "internalType": "address",
          "name": "_employeeAddress",
          "type": "address"
        }
      ],
      "name": "getEmployee",
      "outputs": [
        {
          "components": [
            {
              "internalType": "string",
              "name": "firstName",
              "type": "string"
            },
            {
              "internalType": "string",
              "name": "lastName",
              "type": "string"
            },
            {
              "internalType": "uint256",
              "name": "idEmployee",
              "type": "uint256"
            },
            {
              "internalType": "uint8",
              "name": "role",
              "type": "uint8"
            },
            {
              "internalType": "uint256",
              "name": "ingressDate",
              "type": "uint256"
            },
            {
              "internalType": "uint256",
              "name": "egressDate",
              "type": "uint256"
            }
          ],
          "internalType": "struct Service.EmployeeMetadata",
          "name": "",
          "type": "tuple"
        }
      ],
      "stateMutability": "view",
      "type": "function"
    },
    {
      "inputs": [
        {
          "internalType": "address",
          "name": "_userAddress",
          "type": "address"
        }
      ],
      "name": "getIDMetadataByAddress",
      "outputs": [
        {
          "components": [
            {
              "internalType": "string",
              "name": "firstName",
              "type": "string"
            },
            {
              "internalType": "string",
              "name": "lastName",
              "type": "string"
            },
            {
              "internalType": "uint256",
              "name": "birthDate",
              "type": "uint256"
            },
            {
              "internalType": "string",
              "name": "birthPlace",
              "type": "string"
            }
          ],
          "internalType": "struct Data.idMetadata",
          "name": "",
          "type": "tuple"
        }
      ],
      "stateMutability": "view",
      "type": "function"
    },
    {
      "inputs": [
        {
          "internalType": "uint256",
          "name": "_numberID",
          "type": "uint256"
        }
      ],
      "name": "getIDMetadataByNumberID",
      "outputs": [
        {
          "components": [
            {
              "internalType": "string",
              "name": "firstName",
              "type": "string"
            },
            {
              "internalType": "string",
              "name": "lastName",
              "type": "string"
            },
            {
              "internalType": "uint256",
              "name": "birthDate",
              "type": "uint256"
            },
            {
              "internalType": "string",
              "name": "birthPlace",
              "type": "string"
            }
          ],
          "internalType": "struct Data.idMetadata",
          "name": "",
          "type": "tuple"
        }
      ],
      "stateMutability": "view",
      "type": "function"
    },
    {
      "inputs": [
        {
          "internalType": "address",
          "name": "_userAddress",
          "type": "address"
        }
      ],
      "name": "getIDNumberByAddress",
      "outputs": [
        {
          "internalType": "uint256",
          "name": "",
          "type": "uint256"
        }
      ],
      "stateMutability": "view",
      "type": "function"
    },
    {
      "inputs": [],
      "name": "getMyInfo",
      "outputs": [
        {
          "components": [
            {
              "internalType": "string",
              "name": "firstName",
              "type": "string"
            },
            {
              "internalType": "string",
              "name": "lastName",
              "type": "string"
            },
            {
              "internalType": "uint256",
              "name": "idEmployee",
              "type": "uint256"
            },
            {
              "internalType": "uint8",
              "name": "role",
              "type": "uint8"
            },
            {
              "internalType": "uint256",
              "name": "ingressDate",
              "type": "uint256"
            },
            {
              "internalType": "uint256",
              "name": "egressDate",
              "type": "uint256"
            }
          ],
          "internalType": "struct Service.EmployeeMetadata",
          "name": "",
          "type": "tuple"
        }
      ],
      "stateMutability": "view",
      "type": "function"
    },
    {
      "inputs": [
        {
          "internalType": "bytes32",
          "name": "role",
          "type": "bytes32"
        }
      ],
      "name": "getRoleAdmin",
      "outputs": [
        {
          "internalType": "bytes32",
          "name": "",
          "type": "bytes32"
        }
      ],
      "stateMutability": "view",
      "type": "function"
    },
    {
      "inputs": [
        {
          "internalType": "bytes32",
          "name": "role",
          "type": "bytes32"
        },
        {
          "internalType": "address",
          "name": "account",
          "type": "address"
        }
      ],
      "name": "grantRole",
      "outputs": [],
      "stateMutability": "nonpayable",
      "type": "function"
    },
    {
      "inputs": [
        {
          "internalType": "bytes32",
          "name": "role",
          "type": "bytes32"
        },
        {
          "internalType": "address",
          "name": "account",
          "type": "address"
        }
      ],
      "name": "hasRole",
      "outputs": [
        {
          "internalType": "bool",
          "name": "",
          "type": "bool"
        }
      ],
      "stateMutability": "view",
      "type": "function"
    },
    {
      "inputs": [
        {
          "internalType": "address",
          "name": "_employeeAddress",
          "type": "address"
        },
        {
          "internalType": "string",
          "name": "_firstName",
          "type": "string"
        },
        {
          "internalType": "string",
          "name": "_lastName",
          "type": "string"
        },
        {
          "internalType": "uint8",
          "name": "_role",
          "type": "uint8"
        }
      ],
      "name": "newEmployee",
      "outputs": [
        {
          "internalType": "uint256",
          "name": "",
          "type": "uint256"
        }
      ],
      "stateMutability": "nonpayable",
      "type": "function"
    },
    {
      "inputs": [],
      "name": "numberEmployee",
      "outputs": [
        {
          "internalType": "uint256",
          "name": "",
          "type": "uint256"
        }
      ],
      "stateMutability": "view",
      "type": "function"
    },
    {
      "inputs": [
        {
          "internalType": "address",
          "name": "_employeeAddress",
          "type": "address"
        },
        {
          "internalType": "uint8",
          "name": "_role",
          "type": "uint8"
        }
      ],
      "name": "reinstateEmployee",
      "outputs": [],
      "stateMutability": "nonpayable",
      "type": "function"
    },
    {
      "inputs": [
        {
          "internalType": "address",
          "name": "_employeeAddress",
          "type": "address"
        }
      ],
      "name": "removeEmployee",
      "outputs": [],
      "stateMutability": "nonpayable",
      "type": "function"
    },
    {
      "inputs": [
        {
          "internalType": "bytes32",
          "name": "role",
          "type": "bytes32"
        },
        {
          "internalType": "address",
          "name": "callerConfirmation",
          "type": "address"
        }
      ],
      "name": "renounceRole",
      "outputs": [],
      "stateMutability": "nonpayable",
      "type": "function"
    },
    {
      "inputs": [
        {
          "internalType": "bytes32",
          "name": "role",
          "type": "bytes32"
        },
        {
          "internalType": "address",
          "name": "account",
          "type": "address"
        }
      ],
      "name": "revokeRole",
      "outputs": [],
      "stateMutability": "nonpayable",
      "type": "function"
    },
    {
      "inputs": [
        {
          "internalType": "bytes4",
          "name": "interfaceId",
          "type": "bytes4"
        }
      ],
      "name": "supportsInterface",
      "outputs": [
        {
          "internalType": "bool",
          "name": "",
          "type": "bool"
        }
      ],
      "stateMutability": "view",
      "type": "function"
    }
  ],
  "bytecode": {
    "object": "0x60806040523480156200001157600080fd5b5060405162001f4a38038062001f4a8339810160408190526200003491620002d8565b600180546001600160a01b0319166001600160a01b0386161790556200007b7fa49807205ce4d355092ef5a8a18f56e8913cf4a201fbe287825b095693c217758462000147565b50600280549060006200008e8362000368565b90915550506040805160c08101825283815260208082018490526002548284015260016060830152426080830152600060a083018190526001600160a01b038716815260039091529190912081518190620000ea90826200041f565b50602082015160018201906200010190826200041f565b5060408201516002820155606082015160038201805460ff191660ff9092169190911790556080820151600482015560a09091015160059091015550620004eb92505050565b6000828152602081815260408083206001600160a01b038516845290915281205460ff16620001ec576000838152602081815260408083206001600160a01b03861684529091529020805460ff19166001179055620001a33390565b6001600160a01b0316826001600160a01b0316847f2f8788117e7eff1d82e926ec794901d17c78024a50270940304540a733656f0d60405160405180910390a4506001620001f0565b5060005b92915050565b80516001600160a01b03811681146200020e57600080fd5b919050565b634e487b7160e01b600052604160045260246000fd5b600082601f8301126200023b57600080fd5b81516001600160401b038082111562000258576200025862000213565b604051601f8301601f19908116603f0116810190828211818310171562000283576200028362000213565b81604052838152602092508683858801011115620002a057600080fd5b600091505b83821015620002c45785820183015181830184015290820190620002a5565b600093810190920192909252949350505050565b60008060008060808587031215620002ef57600080fd5b620002fa85620001f6565b93506200030a60208601620001f6565b60408601519093506001600160401b03808211156200032857600080fd5b620003368883890162000229565b935060608701519150808211156200034d57600080fd5b506200035c8782880162000229565b91505092959194509250565b6000600182016200038957634e487b7160e01b600052601160045260246000fd5b5060010190565b600181811c90821680620003a557607f821691505b602082108103620003c657634e487b7160e01b600052602260045260246000fd5b50919050565b601f8211156200041a57600081815260208120601f850160051c81016020861015620003f55750805b601f850160051c820191505b81811015620004165782815560010162000401565b5050505b505050565b81516001600160401b038111156200043b576200043b62000213565b62000453816200044c845462000390565b84620003cc565b602080601f8311600181146200048b5760008415620004725750858301515b600019600386901b1c1916600185901b17855562000416565b600085815260208120601f198616915b82811015620004bc578886015182559484019460019091019084016200049b565b5085821015620004db5787850151600019600388901b60f8161c191681555b5050505050600190811b01905550565b611a4f80620004fb6000396000f3fe608060405234801561001057600080fd5b50600436106101375760003560e01c80637daa10ce116100b8578063b527be8b1161007c578063b527be8b1461028c578063d108177a1461029f578063d547741f146102b2578063dfbeeeb7146102c5578063f0a7c5f9146102da578063f4b9085e1461030557600080fd5b80637daa10ce1461024b5780638b89cb3b1461025357806391d148541461026857806392401a0d1461027b578063a217fddf1461028457600080fd5b80633c013e22116100ff5780633c013e22146101dd5780633fece1e4146101f057806375b238fc14610210578063773cb0c0146102255780637c610eea1461023857600080fd5b806301ffc9a71461013c578063248a9ca3146101645780632f2ff15d1461019557806332648e09146101aa57806336568abe146101ca575b600080fd5b61014f61014a366004611282565b610318565b60405190151581526020015b60405180910390f35b6101876101723660046112b3565b60009081526020819052604090206001015490565b60405190815260200161015b565b6101a86101a33660046112e3565b61034f565b005b6101bd6101b836600461130f565b61037a565b60405161015b919061137a565b6101a86101d83660046112e3565b610565565b6101876101eb36600461130f565b61059d565b6102036101fe3660046112b3565b6106f0565b60405161015b91906113eb565b6101876000805160206119da83398151915281565b6101a8610233366004611467565b61086f565b61020361024636600461130f565b6109e1565b6101bd610b21565b6101876000805160206119ba83398151915281565b61014f6102763660046112e3565b610ccb565b61018760025481565b610187600081565b61018761029a36600461157f565b610cf4565b6101a86102ad36600461130f565b610db0565b6101a86102c03660046112e3565b610f68565b6101876000805160206119fa83398151915281565b6001546102ed906001600160a01b031681565b6040516001600160a01b03909116815260200161015b565b610187610313366004611622565b610f8d565b60006001600160e01b03198216637965db0b60e01b148061034957506301ffc9a760e01b6001600160e01b03198316145b92915050565b60008281526020819052604090206001015461036a81611137565b6103748383611144565b50505050565b6103b66040518060c00160405280606081526020016060815260200160008152602001600060ff16815260200160008152602001600081525090565b6103ce6000805160206119da83398151915233610ccb565b6103eb57604051639234d00960e01b815260040160405180910390fd5b6001600160a01b03821660009081526003602052604090819020815160c0810190925280548290829061041d906116a7565b80601f0160208091040260200160405190810160405280929190818152602001828054610449906116a7565b80156104965780601f1061046b57610100808354040283529160200191610496565b820191906000526020600020905b81548152906001019060200180831161047957829003601f168201915b505050505081526020016001820180546104af906116a7565b80601f01602080910402602001604051908101604052809291908181526020018280546104db906116a7565b80156105285780601f106104fd57610100808354040283529160200191610528565b820191906000526020600020905b81548152906001019060200180831161050b57829003601f168201915b505050918352505060028201546020820152600382015460ff1660408201526004820154606082015260059091015460809091015290505b919050565b6001600160a01b038116331461058e5760405163334bd91960e11b815260040160405180910390fd5b61059882826111d6565b505050565b60006105b76000805160206119fa83398151915233610ccb565b1580156105d957506105d76000805160206119ba83398151915233610ccb565b155b156105f757604051637a3c292760e01b815260040160405180910390fd5b60015460405163fb37aa2360e01b81526001600160a01b0384811660048301529091169063fb37aa2390602401602060405180830381865afa158015610641573d6000803e3d6000fd5b505050506040513d601f19601f8201168201806040525081019061066591906116e1565b610682576040516318f7067f60e31b815260040160405180910390fd5b600154604051631e009f1160e11b81526001600160a01b03848116600483015290911690633c013e2290602401602060405180830381865afa1580156106cc573d6000803e3d6000fd5b505050506040513d601f19601f820116820180604052508101906103499190611703565b61071b6040518060800160405280606081526020016060815260200160008152602001606081525090565b6107336000805160206119fa83398151915233610ccb565b15801561075557506107536000805160206119ba83398151915233610ccb565b155b1561077357604051637a3c292760e01b815260040160405180910390fd5b6001546040516344ad6dd960e01b8152600481018490526001600160a01b03909116906344ad6dd990602401602060405180830381865afa1580156107bc573d6000803e3d6000fd5b505050506040513d601f19601f820116820180604052508101906107e091906116e1565b6107fd576040516318f7067f60e31b815260040160405180910390fd5b600154604051630ffb387960e21b8152600481018490526001600160a01b0390911690633fece1e4906024015b600060405180830381865afa158015610847573d6000803e3d6000fd5b505050506040513d6000823e601f3d908101601f191682016040526103499190810190611769565b6108876000805160206119da83398151915233610ccb565b6108a457604051639234d00960e01b815260040160405180910390fd5b6001600160a01b03821660009081526003602052604081206002015490036108df5760405163373d96b360e21b815260040160405180910390fd5b6001600160a01b038216600090815260036020526040812060050154900361091a576040516349b5f13560e11b815260040160405180910390fd5b8060ff166001036109435761093d6000805160206119da83398151915283611144565b506109a2565b8060ff166002036109665761093d6000805160206119ba83398151915283611144565b8060ff166003036109895761093d6000805160206119fa83398151915283611144565b604051630793d42d60e11b815260040160405180910390fd5b6001600160a01b039190911660009081526003602081905260408220908101805460ff191660ff90941693909317909255600582015542600490910155565b610a0c6040518060800160405280606081526020016060815260200160008152602001606081525090565b610a246000805160206119fa83398151915233610ccb565b158015610a465750610a446000805160206119ba83398151915233610ccb565b155b15610a6457604051637a3c292760e01b815260040160405180910390fd5b60015460405163fb37aa2360e01b81526001600160a01b0384811660048301529091169063fb37aa2390602401602060405180830381865afa158015610aae573d6000803e3d6000fd5b505050506040513d601f19601f82011682018060405250810190610ad291906116e1565b610aef576040516318f7067f60e31b815260040160405180910390fd5b600154604051633e30877560e11b81526001600160a01b03848116600483015290911690637c610eea9060240161082a565b610b5d6040518060c00160405280606081526020016060815260200160008152602001600060ff16815260200160008152602001600081525090565b3360009081526003602052604090819020815160c08101909252805482908290610b86906116a7565b80601f0160208091040260200160405190810160405280929190818152602001828054610bb2906116a7565b8015610bff5780601f10610bd457610100808354040283529160200191610bff565b820191906000526020600020905b815481529060010190602001808311610be257829003601f168201915b50505050508152602001600182018054610c18906116a7565b80601f0160208091040260200160405190810160405280929190818152602001828054610c44906116a7565b8015610c915780601f10610c6657610100808354040283529160200191610c91565b820191906000526020600020905b815481529060010190602001808311610c7457829003601f168201915b505050918352505060028201546020820152600382015460ff16604082015260048201546060820152600590910154608090910152919050565b6000918252602082815260408084206001600160a01b0393909316845291905290205460ff1690565b6000610d0e6000805160206119ba83398151915233610ccb565b610d2b576040516360efdb4560e01b815260040160405180910390fd5b6001546040516342b6b44360e01b81526001600160a01b03909116906342b6b44390610d639089908990899089908990600401611828565b6020604051808303816000875af1158015610d82573d6000803e3d6000fd5b505050506040513d601f19601f82011682018060405250810190610da69190611703565b9695505050505050565b610dc86000805160206119da83398151915233610ccb565b610de557604051639234d00960e01b815260040160405180910390fd5b336001600160a01b03821603610e0e5760405163daafaac760e01b815260040160405180910390fd5b6001600160a01b0381166000908152600360205260408120600201549003610e495760405163373d96b360e21b815260040160405180910390fd5b6001600160a01b03811660009081526003602052604090206005015415610e8357604051630977336160e41b815260040160405180910390fd5b6001600160a01b0381166000908152600360208190526040909120015460ff16600103610ec857610ec26000805160206119da833981519152826111d6565b50610f48565b6001600160a01b0381166000908152600360208190526040909120015460ff16600203610f0757610ec26000805160206119ba833981519152826111d6565b6001600160a01b038116600090815260036020819052604090912081015460ff169003610f4857610f466000805160206119fa833981519152826111d6565b505b6001600160a01b0316600090815260036020526040902042600590910155565b600082815260208190526040902060010154610f8381611137565b61037483836111d6565b6000610fa76000805160206119da83398151915233610ccb565b610fc457604051639234d00960e01b815260040160405180910390fd5b6001600160a01b03851660009081526003602052604090206002015415610ffe57604051632a57285960e11b815260040160405180910390fd5b8160ff16600103611027576110216000805160206119da83398151915286611144565b5061106d565b8160ff1660020361104a576110216000805160206119ba83398151915286611144565b8160ff16600303610989576110216000805160206119fa83398151915286611144565b6002805490600061107d83611884565b90915550506040805160c08101825285815260208082018690526002548284015260ff85166060830152426080830152600060a083018190526001600160a01b0389168152600390915291909120815181906110d990826118f9565b50602082015160018201906110ee90826118f9565b506040820151600282810191909155606083015160038301805460ff191660ff9092169190911790556080830151600483015560a0909201516005909101555495945050505050565b6111418133611241565b50565b60006111508383610ccb565b6111ce576000838152602081815260408083206001600160a01b03861684529091529020805460ff191660011790556111863390565b6001600160a01b0316826001600160a01b0316847f2f8788117e7eff1d82e926ec794901d17c78024a50270940304540a733656f0d60405160405180910390a4506001610349565b506000610349565b60006111e28383610ccb565b156111ce576000838152602081815260408083206001600160a01b0386168085529252808320805460ff1916905551339286917ff6391f5c32d9c69d2a47ea670b442974b53935d1edc7fd64eb21e047a839171b9190a4506001610349565b61124b8282610ccb565b61127e5760405163e2517d3f60e01b81526001600160a01b03821660048201526024810183905260440160405180910390fd5b5050565b60006020828403121561129457600080fd5b81356001600160e01b0319811681146112ac57600080fd5b9392505050565b6000602082840312156112c557600080fd5b5035919050565b80356001600160a01b038116811461056057600080fd5b600080604083850312156112f657600080fd5b82359150611306602084016112cc565b90509250929050565b60006020828403121561132157600080fd5b6112ac826112cc565b60005b8381101561134557818101518382015260200161132d565b50506000910152565b6000815180845261136681602086016020860161132a565b601f01601f19169290920160200192915050565b602081526000825160c0602084015261139660e084018261134e565b90506020840151601f198483030160408501526113b3828261134e565b9150506040840151606084015260ff6060850151166080840152608084015160a084015260a084015160c08401528091505092915050565b60208152600082516080602084015261140760a084018261134e565b90506020840151601f1980858403016040860152611425838361134e565b92506040860151606086015260608601519150808584030160808601525061144d828261134e565b95945050505050565b803560ff8116811461056057600080fd5b6000806040838503121561147a57600080fd5b611483836112cc565b915061130660208401611456565b634e487b7160e01b600052604160045260246000fd5b6040516080810167ffffffffffffffff811182821017156114ca576114ca611491565b60405290565b604051601f8201601f1916810167ffffffffffffffff811182821017156114f9576114f9611491565b604052919050565b600067ffffffffffffffff82111561151b5761151b611491565b50601f01601f191660200190565b600082601f83011261153a57600080fd5b813561154d61154882611501565b6114d0565b81815284602083860101111561156257600080fd5b816020850160208301376000918101602001919091529392505050565b600080600080600060a0868803121561159757600080fd5b6115a0866112cc565b9450602086013567ffffffffffffffff808211156115bd57600080fd5b6115c989838a01611529565b955060408801359150808211156115df57600080fd5b6115eb89838a01611529565b945060608801359350608088013591508082111561160857600080fd5b5061161588828901611529565b9150509295509295909350565b6000806000806080858703121561163857600080fd5b611641856112cc565b9350602085013567ffffffffffffffff8082111561165e57600080fd5b61166a88838901611529565b9450604087013591508082111561168057600080fd5b5061168d87828801611529565b92505061169c60608601611456565b905092959194509250565b600181811c908216806116bb57607f821691505b6020821081036116db57634e487b7160e01b600052602260045260246000fd5b50919050565b6000602082840312156116f357600080fd5b815180151581146112ac57600080fd5b60006020828403121561171557600080fd5b5051919050565b600082601f83011261172d57600080fd5b815161173b61154882611501565b81815284602083860101111561175057600080fd5b61176182602083016020870161132a565b949350505050565b60006020828403121561177b57600080fd5b815167ffffffffffffffff8082111561179357600080fd5b90830190608082860312156117a757600080fd5b6117af6114a7565b8251828111156117be57600080fd5b6117ca8782860161171c565b8252506020830151828111156117df57600080fd5b6117eb8782860161171c565b6020830152506040830151604082015260608301518281111561180d57600080fd5b6118198782860161171c565b60608301525095945050505050565b6001600160a01b038616815260a06020820181905260009061184c9083018761134e565b828103604084015261185e818761134e565b90508460608401528281036080840152611878818561134e565b98975050505050505050565b6000600182016118a457634e487b7160e01b600052601160045260246000fd5b5060010190565b601f82111561059857600081815260208120601f850160051c810160208610156118d25750805b601f850160051c820191505b818110156118f1578281556001016118de565b505050505050565b815167ffffffffffffffff81111561191357611913611491565b6119278161192184546116a7565b846118ab565b602080601f83116001811461195c57600084156119445750858301515b600019600386901b1c1916600185901b1785556118f1565b600085815260208120601f198616915b8281101561198b5788860151825594840194600190910190840161196c565b50858210156119a95787850151600019600388901b60f8161c191681555b5050505050600190811b0190555056fecdf2c8daa63f871d20b4a89066e1175f12d20809bd2401b0d2c48935db3e2489a49807205ce4d355092ef5a8a18f56e8913cf4a201fbe287825b095693c217750887836c361e0de2a79d8a48fadf77d36bb5eae40c059217fa115a39425b0c35a2646970667358221220219790d2404edfbd4ec41ef01f77cfb4029db5a5ca098578ca2cde805cac510864736f6c63430008140033",
    "linkReferences": {}
  },
  "methodIdentifiers": {
    "ADMIN_ROLE()": "75b238fc",
    "DEFAULT_ADMIN_ROLE()": "a217fddf",
    "DataAddress()": "f0a7c5f9",
    "GENERAL_EMPLOYEE_ROLE()": "dfbeeeb7",
    "MANAGER_EMPLOYEE_ROLE()": "8b89cb3b",
    "generateId(address,string,string,uint256,string)": "b527be8b",
    "getEmployee(address)": "32648e09",
    "getIDMetadataByAddress(address)": "7c610eea",
    "getIDMetadataByNumberID(uint256)": "3fece1e4",
    "getIDNumberByAddress(address)": "3c013e22",
    "getMyInfo()": "7daa10ce",
    "getRoleAdmin(bytes32)": "248a9ca3",
    "grantRole(bytes32,address)": "2f2ff15d",
    "hasRole(bytes32,address)": "91d14854",
    "newEmployee(address,string,string,uint8)": "f4b9085e",
    "numberEmployee()": "92401a0d",
    "reinstateEmployee(address,uint8)": "773cb0c0",
    "removeEmployee(address)": "d108177a",
    "renounceRole(bytes32,address)": "36568abe",
    "revokeRole(bytes32,address)": "d547741f",
    "supportsInterface(bytes4)": "01ffc9a7"
  },
  "id": 21
}